:100000000C9440020C945D020C945D020C94BF1A97
:100010000C945D020C945D020C945D020C945D02E4
:100020000C945D020C945D020C9473220C94452395
:100030000C94491D0C945D020C945D020C945D02BD
:100040000C945D020C945D020C945D020C945D02B4
:100050000C945D020C94ED1D0C945D020C945D02F9
:100060000C945D020C945D020C945D020C945D0294
:100070000C945D020C945D020C945D020C945D0284
:100080000C945D020C945D020C945D020C945D0274
:100090000C945D020C945D020C945D020C945D0264
:1000A0000C945D020C945D020C945D028504850441
:1000B000B104B104190537054F064F064205DB05AB
:1000C000EC05EC05B223D923D124D923D12425244E
:1000D0004824D1249F24AE242B0014001A000800C9
:1000E00015001700E00004001600070009000A00D0
:1000F000E1001D001B0006001900050000000000C3
:100100000000E30001512C002A00130012000C0033
:1001100018001C002F0033000F000E000D000B0014
:1001200029003800370036001000110000000000E0
:100130000000E200025128002B001E001F002000DA
:1001400021002200E0002D022E001E022E020000DF
:10015000E1000000000000000000000000000000BE
:100160000000E30001002C004C00270026002500C1
:1001700024002300000000004F00520051005000F6
:1001800000000000000030063806280500000000CE
:100190000000E200035128002B001E021F02200273
:1001A00021022202E000141435001F022D00341435
:1001B000E10000000000000000000000000000005E
:1001C0000000E30003512C004C0027022602250208
:1001D000240223023014540032003400300038006E
:1001E00030022F0232023402640264000000000078
:1001F0000000E60001002800005C00000000000094
:1002000004540553C35CC65CC85CCA5C00000000B3
:10021000C45CC75CC95CCB5C00000000000000004F
:100220000000E30001002C000000000000000000BE
:1002300000000000000000000000000000000000BE
:1002400000000000000000000000000000000000AE
:100250000000E2000100280045003A003B003C009D
:100260003D003E0000000000000000000000000013
:10027000E10000000000000000000000000000009D
:100280000000000010500000440043004200410004
:1002900040003F00000000000000000000000000DF
:1002A000000000000000000000000000000000004E
:1002B0000000E600000000002B0014001A000800F7
:1002C000150021003A003B003C00070009003D00FA
:1002D0000000000000000000000005000000000019
:1002E0000000E000E2002C00000000000000000020
:1002F00000000000000000000000000000000000FE
:1003000000000000000000000000000000000000ED
:1003100000000000105000000C0343006F0072004A
:100320006E0065000000100366006F006F00730030
:10033000740061006E0000000403090409023B0020
:10034000020100A0FA0904000001030101000921D3
:100350001101000122400007058103080001090482
:100360000100010300000009211101000122B60073
:10037000070582032000011201000200000008535B
:1003800046010001000102000105010902A10185E9
:10039000020901A100050919012908150025019587
:1003A00008750181020501093009311581257F9504
:1003B000027508810609381581257F950175088128
:1003C00006050C0A38021581257F950175088106FE
:1003D000C0C005010980A101850319012AB70015D4
:1003E0000126B700950175108100C0050C0901A117
:1003F00001850419012AA002150126A002950175A4
:10040000108100C005010906A1018506050719E054
:1004100029E71500250195087501810205071900D6
:1004200029EF1500250195F07501810205081901D4
:100430002905950575019102950175039101C00586
:10044000010906A101050719E029E7150025019515
:1004500008750181029501750881010507190029B8
:10046000FF150026FF009506750881000508190193
:100470002905950575019102950175039101C0004B
:1004800011241FBECFEFDAE0DEBFCDBF11E0A0E048
:10049000B1E0EEE3FBE402C005900D92A03AB10793
:1004A000D9F722E0A0EAB1E001C01D92A03EB20758
:1004B000E1F70E9430150C949D250C94000081E01A
:1004C000089581E008950C94610208950C946502EA
:1004D0001F93CF93DF9300D000D01F92CDB7DEB72C
:1004E00049835A836B833091A30189819A813111A9
:1004F00014C0662359F0222349F00E948E08182F59
:10050000682F89819A810E94350803C00E94610882
:10051000182F69817A81812F04C00E948E08698119
:100520007A810F900F900F900F900F90DF91CF91E5
:100530001F910C94B70FFC01262F408151816281DD
:10054000738184810C94680281E00895CF93DF93D6
:10055000EC0160E00E949B02BE01DF91CF910C9400
:1005600066020C9441110C943D1108950E94DF061F
:100570000E94B5022FEF84E39CE021508040904020
:10058000E1F700C000000C94131E0F931F93CF934C
:10059000DF938C0161E00E949B02EC01B8010E9494
:1005A00063028823F1F1B801CE010E94CA198823A1
:1005B000C1F1B801CE010E94DE17882391F1B80184
:1005C000CE010E942619882361F1F80182818823D7
:1005D00009F1CB358DE5D807C1F050F4C115FCE524
:1005E000DF0781F0CF3DDC45A9F40E94C50D19C09D
:1005F000CC35EDE5DE0761F0CD35DD4559F40E94DF
:10060000080D08C00E94B6020CC00E94110D02C065
:100610000E94140DC801DF91CF911F910F910C948E
:100620005F0280E0DF91CF911F910F9108950E94AA
:100630002C1D0C9430030E9433030C94321D08953A
:100640000C941F0381E008950C9422030895CF9326
:10065000C82F0E9420038C2F0E942403CF9108955D
:1006600080E00C9427030E94EA1B0C9427030E944D
:10067000EA1B9091A201891721F08093A2010C94AA
:1006800027030895CF93DF93CDB7DEB72B970FB62F
:10069000F894DEBF0FBECDBF4F83588769877A8736
:1006A0008B8761110E94540C9E012F5F3F4F86E0A3
:1006B000F90111928A95E9F785E0FE013796D90193
:1006C00001900D928A95E1F789819A814C815D8133
:1006D000452B31F09F3F31F491E08F3F19F403C077
:1006E00091E001C090E090FF09C049815A816B817F
:1006F0007C818D819E810E94750B05C0C9010E947D
:10070000A4028111F2CF2B960FB6F894DEBF0FBE74
:10071000CDBFDF91CF910895FC01808191810E942E
:10072000D0080895CF93882309F450C0C82F8CEFC8
:100730008C0F813AD0F46C2F8091020190910301CB
:100740000E94671C882349F06C2F809102019091D0
:1007500003010E94F21C0E94760C6C2F8091020112
:10076000909103010E94E71C0CC080E28C0F88303E
:1007700058F4C77081E001C0880FCA95EAF70E945B
:10078000370CCF910C94760CEBE5EC0FE33040F492
:10079000F0E0E05AFE4F808190E0CF910C94251C50
:1007A000E8E5EC0FE73150F4F0E0EE0FFF1FEE5CF0
:1007B000FE4F80819181CF910C943B1CCD3E30F057
:1007C0008C2F0E94B515CF910C948716CF91089568
:1007D000882389F19CEF980F913A40F4682F80911B
:1007E0000201909103010E94F21C0DC090E2980F4B
:1007F000983058F4877091E001C0990F8A95EAF714
:10080000892F0E943D0C0C94760C9BE5980F933039
:1008100020F480E090E00C94251C98E5980F973127
:1008200020F480E090E00C943B1C8D3E20F00E9470
:1008300010160C94871608951F93CF93DF93182FEB
:10084000EB010E949203209741F08FE99FE001970E
:10085000F1F700C000002197F6CF812FDF91CF91F3
:100860001F910C94E803893319F060E070E002C036
:1008700060E570E00C941C04882321F00E94370C82
:100880000C94760C0895882321F00E943D0C0C9462
:10089000760C0895CF92DF92EF92FF920F931F9301
:1008A000CF93DF937C01D62FC72FFC0112810581E6
:1008B00002950F700E942D0C8823B9F01123A9F026
:1008C0008C2F807F803421F080E28D0F883068F09B
:1008D0008091BC0282FD09C082E00E94D60C0E9479
:1008E0002D0C91E0D82ED92601C0D12CCC2EC2944B
:1008F0008FE0C8228C2D90E08C30910508F0CFC19C
:10090000FC01EA5AFF4F0C942B258C2F807FCF706F
:10091000882311F0C295C07F112399F0CC2309F4EC
:10092000AAC180E28D0F883010F0D11104C08C2F45
:100930000E94370C03C08C2F0E94470C0E94760C3B
:100940009AC18D2F0E94E803CC2309F4A8C180E24C
:100950008D0F883038F1DD2329F18C2F0E944D0C4A
:1009600024C08C2F807FCF70803211F0C295C07F61
:10097000DD2319F0D130A1F13DC08091BC0282FF8E
:1009800017C0112349F0CC2329F08C2F0E94370C7B
:100990000E94760C80E070C180E00E94E803CC23C6
:1009A00009F47DC18C2F0E943D0C0E94760C77C10A
:1009B000112371F0002341F0013031F40E94570CF3
:1009C0008C2B0E945F0C6BC10E94570C8C2B1DC09E
:1009D000002319F0013009F462C10E946C0C25C09B
:1009E000112321F0063008F05AC10EC0053008F07E
:1009F00056C11BC0112361F0002331F0F70185813E
:100A000080FF39C18F7085838C2F0E943C0447C1C1
:100A1000002359F0D93309F03FC1FFEF07EE13E08F
:100A2000F15000401040E1F735C18C2F0E94430483
:100A300036C18C2F86958695837019F0813061F0D0
:100A40002EC1112321F08D2F9C2F937002C080E0C6
:100A500090E00E94251C2BC1112321F08D2F9C2F8B
:100A6000937002C080E090E00E943B1C20C18D2F5B
:100A7000112319F00E94B51502C00E9410160E94A1
:100A8000871615C18C2F837009F047C011110BC157
:100A90002D2F229526952770220F220F6D2F6F7014
:100AA000862F90E0A0E0B0E0022E04C0880F991FCE
:100AB000AA1FBB1F0A94D2F7D4FF10C04FE050E02A
:100AC00060E070E004C0440F551F661F771F2A9531
:100AD000D2F7409550956095709503C040E050E086
:100AE000BA01C695C695C3708A019B01082B192BC4
:100AF0002A2B3B2BC901B801C23049F058F4C13050
:100B000019F00E944B07CFC00E943907CCC00E9449
:100B10005D07C9C00E943707C6C0112319F08C2F8A
:100B2000817001C08695882309F4BDC02D2F2295C0
:100B300026952770220F220F6D2F6F70862F90E061
:100B4000A0E0B0E0022E04C0880F991FAA1FBB1FAF
:100B50000A94D2F7D4FF10C04FE050E060E070E09C
:100B600004C0440F551F661F771F2A95D2F7409582
:100B700050956095709503C040E050E0BA01C6956D
:100B8000C695C3708A019B01082B192B2A2B3B2B7E
:100B9000C901B801C23049F058F4C13019F00E94BF
:100BA000100881C00E94FE077EC00E9422087BC000
:100BB0000E94710778C0CF70112339F08C2F0E94EA
:100BC00097078D2F0E943C046EC08D2F0E94430416
:100BD0008C2F0E94B80767C0D23F21F128F4D03F84
:100BE00041F0D13FC1F043C0D33F19F1D43F79F078
:100BF0003EC0112341F0053008F051C08C2F8F7199
:100C00000E94DD074CC0063008F049C0F7CF809144
:100C1000BC0282FF18C0112339F08C2F8F710E9403
:100C200097073DC01123C9F38C2F8F710E94B8071D
:100C300036C0112329F08C2F8F710E9482072FC09C
:100C40000E947D072CC0112349F0CF718C2F0E9488
:100C5000970763E08C2F0E94BB0C21C081E00E94AB
:100C6000D60C0230E0F082E00E94D60C18C01123AE
:100C700031F0002391F28D2F0E94920310C00023C7
:100C800099F2D93349F41FEF27EE33E01150204099
:100C90003040E1F700C000008D2F0E94E80388EF8C
:100CA0008C0D843020F40E94EA1B0E942703DD2073
:100CB000C9F00E94290C80FD15C0F70112820E9424
:100CC000230C0E949707C7010E9493060E94230CE1
:100CD000DF91CF911F910F91FF90EF90DF90CF9018
:100CE0000C94B807DF91CF911F910F91FF90EF9077
:100CF000DF90CF9008950F931F93CF93DF93EC0174
:100D0000688179818A810E94DB088C010E94340805
:100D10000E942507B801CE010E944A04DF91CF91BD
:100D20001F910F910895CF93DF93EC0198818981F2
:100D30002B813C81232B31F08F3F31F481E09F3FA9
:100D400019F403C081E001C080E080FD1DC0CE0128
:100D50000E94C502811110C00E942D0C8823A1F0B1
:100D60008A81882389F08091BC0282FD0DC082E0D7
:100D7000DF91CF910C94D60CCE010E947B06CE0160
:100D8000DF91CF910C94A602DF91CF91089580E07E
:100D900090E00E94251C80E090E00E943B1C0E9495
:100DA000540C0E94760C0E94B8170C948716809100
:100DB0000201909103010E94FD1C0C94C7060E9441
:100DC000440C0C94D70692959F70963079F010F4ED
:100DD000925001C09A50923068F4803F69F018F444
:100DE000883E40F409C0843F29F406C0883E20F0C4
:100DF000813F11F080E0089581E00895FC01808139
:100E000091810E94D0080E94E3060895CF93DF935A
:100E100000D000D01F92CDB7DEB70F900F900F908B
:100E20000F900F90DF91CF910895CF93DF9300D073
:100E300000D000D0CDB7DEB726960FB6F894DEBF4F
:100E40000FBECDBFDF91CF910895089508950C9402
:100E500026070C9427070E9429076093C601709308
:100E6000C7018093C8019093C9010C94C7060C94E4
:100E70002B070F931F930091C6011091C70120917A
:100E8000C8013091C901602B712B822B932B1F91CC
:100E90000F910C942B070F931F930091C601109193
:100EA000C7012091C8013091C901602371238223B9
:100EB00093231F910F910C942B070F931F93009175
:100EC000C6011091C7012091C8013091C901602766
:100ED0007127822793271F910F910C942B070C9455
:100EE00026070E946F076093C2017093C30180932D
:100EF000C4019093C5010C94C70660E070E0CB017B
:100F00000C9471070F931F9341E050E060E070E094
:100F10008A019B0104C0000F111F221F331F8A95F5
:100F2000D2F7C901B8011F910F910C9471070F936B
:100F30001F9341E050E060E070E004C0440F551F93
:100F4000661F771F8A95D2F78091C2019091C301E5
:100F5000A091C401B091C5018A019B01082B192BF6
:100F60002A2B3B2BC901B8011F910F910C947107DB
:100F70000F931F9341E050E060E070E004C0440F25
:100F8000551F661F771F8A95D2F74095509560953B
:100F900070958091C2019091C301A091C401B0915C
:100FA000C5018A019B01082319232A233B23C90178
:100FB000B8011F910F910C9471070F931F9341E09B
:100FC00050E060E070E004C0440F551F661F771FBB
:100FD0008A95D2F78091C2019091C301A091C4017A
:100FE000B091C5018A019B01082719272A273B27B1
:100FF000C901B8011F910F910C9471070F931F93B2
:101000000091C2011091C3012091C4013091C5012A
:10101000602B712B822B932B1F910F910C947107D6
:101020000F931F930091C2011091C3012091C4013D
:101030003091C50160237123822393231F910F9167
:101040000C9471070F931F930091C2011091C3017B
:101050002091C4013091C501602771278227932711
:101060001F910F910C9471070895292F220F920F51
:10107000990F890FE82FE695E695E695877051E080
:1010800001C0550F8A95EAF785E0E89FF001112429
:10109000EC55FE4F20E030E070E04081CB01022EA5
:1010A00002C0969587950A94E2F78170819584270E
:1010B0008523842781932F5F3F4F2530310569F7C2
:1010C0000895292F220F920F990F890F682F669587
:1010D00066956695982F977085E0689FB0011124FA
:1010E00040E050E080E0FB01E40FF51FEC55FE4FBF
:1010F000208130E0092E02C0369527950A94E2F748
:1011000021703327042E01C0220F0A94EAF7822BA4
:101110004F5F5F4F4530510531F70895BF92CF9231
:10112000DF92EF92FF920F931F93CF93DF938C0187
:10113000C090C201D090C301E090C401F090C501FD
:101140008091C6019091C701A091C801B091C901D9
:10115000C82AD92AEA2AFB2ACFE1D0E0D701C60162
:101160000C2E04C0B695A795979587950A94D2F74B
:1011700080FD04C0219790F7B12C07C0BC2EB801A8
:101180008C2F0E94CA0F0197A9F38B2DDF91CF916D
:101190001F910F91FF90EF90DF90CF90BF90089537
:1011A000CF93DF93EC010E948E08BE010E94CA0F0C
:1011B000DF91CF9108951F93CF93DF93EB0190912F
:1011C000A301992321F0CB010E94D00813C08823EA
:1011D00049F0CB010E948E08182F682FCE010E9483
:1011E000350804C0CB010E946108182FBE01812F71
:1011F0000E94CA0FDF91CF911F9108951F93CF9343
:10120000DF93C091CA0116E08091CB01C81799F015
:10121000D0E01C9FF0011D9FF00D1124E453FE4F00
:101220004081518162817381848195810E9415077B
:101230002196C770E9CFDF91CF911F91089540911A
:10124000FC015091FD016091FE017091FF018091C0
:101250000002909101020C941507EF92FF920F93F8
:101260001F93CF93DF938091010282958F7009F0D5
:1012700065C08091FE01882309F460C08091CA0195
:10128000F090CB011091FC010091FD016091FF01F4
:101290007091000291E01F3F09F090E0C0910001C1
:1012A000D0910101292F96E0E92E8F1509F446C04F
:1012B0006115710521F00F3F21F030E003C031E0EE
:1012C00001C0322F90E030FD36C0E89EF001E99E6B
:1012D000F00D1124DF01A453BE4F11963C911197DC
:1012E000301329C03C91311326C012963C911297BD
:1012F000311121C013964D915C911497461B570BE9
:101300004C175D07C0F4809101028F70806180935B
:101310000102EF52FE4F80818F70806180838CEFDD
:1013200091E00E949306DF91CF911F910F91FF9062
:10133000EF900C94FE0801968770B7CFDF91CF91A4
:101340001F910F91FF90EF9008959F92AF92BF92DF
:10135000CF92DF92EF92FF920F931F93CF93DF9381
:10136000CDB7DEB761970FB6F894DEBF0FBECDBF25
:101370008C0185E0F801DE011D9601900D928A95A1
:10138000E1F7D8011296EC909091FC01E091FD01FB
:101390002091FF01309100022115310531F0EF3F1E
:1013A00031F481E09F3F19F403C081E001C080E087
:1013B000B82FB1709B2E80FD47C1D8014C9111967A
:1013C0005C9111971396AD90BC9014978CEFC82E3A
:1013D00081E0D82EF090FE01B501621B730B2091C5
:1013E000000130910101FF2009F4D9C08091010270
:1013F0006217730708F095C0282F207F09F052C0AC
:101400005E1313C0491311C0FE2CE1100EC08F7083
:101410008061809301020E941F09C6010E94930609
:1014200080910102F80185834DC1AB2831F05F3F07
:1014300031F481E04F3F19F403C081E001C080E046
:1014400080FD03C081E08E2502C080E090E0F82F8F
:10145000F170FF2E80FF1CC08091CA012091CB014A
:1014600036E0821709F40BC190E0389FF001399FF4
:10147000F00D1124E453FE4F6181561306C06081C4
:10148000461303C06281E61203C001968770E9CF5C
:10149000FE2CEE2009F416C1809101028160809338
:1014A000010254C05E1306C0491304C0E11002C01B
:1014B000F80199C0C8010E94FE06882361F1EE2060
:1014C00051F120910102822F82958F7090E0029756
:1014D00074F08091FC019091FD0198878F831986AB
:1014E000BB86AA862C87CE0107960E94930686E0CB
:1014F000F801ACEFB1E001900D928A95E1F70E94FE
:101500002D090E941F090AC05E1711F1C8010E942F
:10151000FE0681112CC0C8010E949306FF24F3949B
:10152000D1C0282F207F81F77A2DB98AA88A6E2D05
:1015300089890E9406078CEF91E00E94930686E05D
:10154000D6011D928A95E9F70E941F09F12CBAC0B5
:101550004913DCCFE110DACFF8018583C8010E947E
:10156000930686E0D6011D928A95E9F7ABC0EE207E
:1015700091F220910102822F82958F7090E0029764
:101580000CF4B5CF8091FC019091FD019A83898381
:101590001B82BD82AC822E83CE010196A6CF62173C
:1015A000730708F044C0FE2CEE2009F4B4CF5E139C
:1015B00030C049132EC02091010220FD21C0822F8E
:1015C00082958F70482F50E041155105C9F0F80100
:1015D00025834F30510541F08F5F982F9295907F72
:1015E000822F8F70892B8583C8010E94930686E025
:1015F000F801ACEFB1E001900D928A95E1F73CC0A3
:1016000086E0F801ACEFB1E001900D928A95E1F728
:1016100059C0C8010E94FE06811169CF8091010264
:10162000816080930102C8010E9493064BC07A2D0D
:10163000B98AA88A6E2D89890E94060786E0D6019C
:101640001D928A95E9F718C0EE2009F464CFC8010D
:101650000E94FE06F82E882309F45DCF86E0F8018B
:10166000ACEFB1E001900D928A95E1F78CEF91E03B
:101670000E948C030E942D090E941F0923C04D87E0
:101680005E878D859E850E94D008292F22952F7018
:10169000223028F49F7039F0811105C00BC024302E
:1016A00028F49F7049F4805E883020F0C8010E94C1
:1016B00093069F2CF92C06C0D80115969C91907F1B
:1016C00091F7F8CF8F2D61960FB6F894DEBF0FBE5D
:1016D000CDBFDF91CF911F910F91FF90EF90DF90E1
:1016E000CF90BF90AF909F9008951F93CF93DF93BB
:1016F000CDB7DEB72C970FB6F894DEBF0FBECDBFC7
:101700004F83588769877A878B879C87CE01079696
:101710000E94A5098823D1F09F8188852A853B8571
:10172000232B31F08F3F31F481E09F3F19F403C048
:1017300081E001C080E080FD47C04F815885698508
:101740007A858B859C850E9415073EC086E0FE0148
:101750003796DE01119601900D928A95E1F7FF818F
:10176000E8856A857B856115710531F0EF3F31F4BD
:1017700081E0FF3F19F403C081E001C080E080FDFB
:1017800023C02091CB0130E0C901019687709927D1
:101790004091CA0150E084179507F1F1F983EA837B
:1017A0007D836C8396E0929FD001939FB00D1124AE
:1017B000A453BE4FFE01319601900D929A95E1F728
:1017C0008093CB010E94FE0816E08091CA0190919F
:1017D000CB01891771F1189FC001112484539E4FCA
:1017E0000E94A509882329F1E091CA011E9FF001FA
:1017F0001124E453FE4F40815181628173818481C1
:1018000095810E9415078091CA0190E0019687702A
:1018100099278093CA01D9CF0E94DF061092CB018D
:101820001092CA01ECEFF1E086E0DF011D928A958B
:10183000E9F72C960FB6F894DEBF0FBECDBFDF914F
:10184000CF911F9108958091220285958595859568
:1018500008958091220287700895909122029770D6
:1018600081E009F480E00895809145020895909107
:101870004502892B809345020895809590914502F9
:10188000892380934502089510924502089590910E
:101890004402892B809344020895809590914402DC
:1018A0008923809344020895109244020895809100
:1018B0002302089508950C945A0C0C945B0C90919B
:1018C000BC0292FD08C090912302981721F08093EA
:1018D00023020C945D0C089580912302882329F043
:1018E0001092230280E00C945D0C0895CF93DF9357
:1018F000E0910201F0910301809145028083E09123
:101900000201F0910301908180914402892B808330
:1019100080912302882381F0E0910201F09103017C
:101920009081892B808380910201909103010E9414
:10193000511C81110E946C0CC0910201D0910301D5
:1019400040E250E062E072E0CE010E944525892B22
:1019500069F080E2FE01A2E0B2E001900D928A956A
:10196000E1F7CE01DF91CF910C94FD1BDF91CF9178
:1019700008950C945A0C9091BC0292FD10C098E00E
:10198000899F90011124262B209322020E94970701
:10199000809122028595859585950C94B90C0C94BF
:1019A00097071092220280E00C94B90C2091220239
:1019B0008095822380932202982F977099F430E0CB
:1019C000482F082E000C550B2417350759F090911D
:1019D000BC0292FD07C08595859585950E94B80744
:1019E0000C94D10C08959091BC0292FB222720F90F
:1019F000281769F080FB92F99093BC028091BB029A
:101A00009091BC020E94410D82E00C94D60C089586
:101A10008091BC0282FB882780F991E089270C9491
:101A2000F30C81E00C94F30C80E00C94F30C6FEF5A
:101A30007FEF80E090E00C94872580E090E00E94AA
:101A4000632521E0893E9E4F09F020E0822F089512
:101A500082E090E00C945B2583E090E00C945B25A1
:101A6000CF9384E090E00E945B25C82F82E290E053
:101A70000E945B252C2F30E0A901582BCA01CF9181
:101A80000895CF93C92F682F84E090E00E946925C4
:101A90006C2F82E290E0CF910C946925AB01BC01E0
:101AA0008FE090E00C947B25AB01BC0183E190E0DA
:101AB0000C947B2560E070E0CB010C94540D60E049
:101AC00070E0CB010E944E0D0C945A0D69EE7EEF32
:101AD00080E090E00E94872560E082E090E00E9434
:101AE000692560E083E090E00E9469251092C601BC
:101AF0001092C7011092C8011092C90160E084E001
:101B000090E00E94692560E082E290E00E946925F1
:101B100060E085E090E00E94692560E086E090E06A
:101B20000E9469256FEF87E090E00E94692540E000
:101B300050E0BA0188E090E00E947B2560E08DE0F3
:101B400090E00E94692540E050E0BA0188E190E011
:101B50000E947B2560E087E190E00E94692540E0DB
:101B600050E0BA018CE190E00E947B2560E070E0DB
:101B700080E290E00E94872540E050E0BA0188E1D1
:101B800090E00E947B250C945F0D0C94660D682FED
:101B90008EE090E00C9469250E94B61D609352027D
:101BA00070935302809354029093550260934E02B7
:101BB00070934F028093500290935102089585B71D
:101BC000806885BF85B7806885BF08950C94F11241
:101BD00008950C94E80D0C94E80D0C94EB0D0C9406
:101BE000E80D0C94EF0D0C94E80D0E94DF0D87EECC
:101BF00090E10E94E01B0E94F30D0C94F10D0E94F5
:101C0000E90D0C94E80D0E9407110C9426030E9424
:101C1000A11D0E94A6100E940B130E9442120E9456
:101C2000030E0E94C6170E9415130C94ED0D8F929F
:101C30009F92AF92BF92CF92DF92EF92FF920F935B
:101C40001F93CF93DF93CDB7DEB72A970FB6F894E3
:101C5000DEBF0FBECDBF0E946612982E81110E947A
:101C6000CC0D86E4A82E82E0B82E00E010E0802E95
:101C7000802F0E942B11D82EF501C1905F01C8263C
:101C8000B1F40F5F1F4F0830110589F78FEF89837B
:101C90008A831B820E94AA1D8160782F9D838C837A
:101CA00049815A816B818D810E9442032FC08091AE
:101CB000560281FD0E943111E12CFF24F3948C2DFA
:101CC0008F21F1F00E94E60D882399F0EE828F8239
:101CD000DF2081E009F480E088870E94AA1D8160EE
:101CE000782F9A8789874E815F8168858A850E94CF
:101CF0004203F801EA5BFD4F8081F826F08206C0BE
:101D0000E394FF0CF6E0EF12DACFBBCF81E0911045
:101D100001C080E02A960FB6F894DEBF0FBECDBF9B
:101D2000DF91CF911F910F91FF90EF90DF90CF90B7
:101D3000BF90AF909F908F9008950E94170E0E94C1
:101D4000F1120E94A5160C943703CF93DF930E94E3
:101D5000CF0FEC01811521E5920708F045C08115F0
:101D600030E5930708F094C0883E910528F5803E41
:101D7000910508F0F8C0883A910570F4853A91050C
:101D800008F07CC08130910509F475C008F4E8C002
:101D9000049708F0E8C0E4C08F3B910508F0E0C06C
:101DA000C85AD0E0CC0FDD1FCD59DE4F0990D88145
:101DB000C02DCE019464D8C0811540E2940758F438
:101DC000811551E0950708F0CEC08D3E910508F4CD
:101DD000C7C09065C9C0C11580E4D80708F4C0C069
:101DE000DF70CE01906AC0C0811525E59207A8F486
:101DF000811534E5930708F095C0811543E59407F4
:101E000008F07BC0811552E5950708F061C0D82F16
:101E1000CC27CE01816F906AA7C0C11589E5D8078C
:101E2000A0F4C11528E5D20708F082C0C11536E537
:101E3000D30708F095C08C2F0E9463108F7190E03B
:101E4000D82FCC27CE0190628FC0C1154AE5D407A8
:101E500008F474C0CE0190568115904208F080C0FD
:101E60008D2F8F710E946310DD27D0628F71AE01BC
:101E7000582BCA0179C081E090E076C0C55AD0E005
:101E8000CF56DE4F8881C82FD0E0CE0190646CC061
:101E900074E0969587957A95E1F7282F23703C2F6B
:101EA000337081E090E002C0880F991F3A95E2F705
:101EB0009C68AC01522B9A019C2F9F709695969529
:101EC00050E2959FE0011124C9018C2B9D2B4CC041
:101ED0008370992721E030E002C0220F331F8A95DA
:101EE000E2F79C2F9695969580E2989FE001112449
:101EF000C22BD32BCE019C6837C08370992721E079
:101F000030E002C0220F331F8A95E2F79C2F96958E
:101F1000969540E2949FE0011124C22BD32BCE0171
:101F20009A6822C0D82FCC27CE01846F906A1CC03B
:101F3000DC2FCC27CE01806F906A16C08C2F8F705B
:101F40000E94631094E0D695C7959A95E1F7CF70FB
:101F5000D0E0DC2FCC27D0699E01282BC90104C01A
:101F600080E090E001C0CE01DF91CF91089520E3A1
:101F7000829FC0011124FC0126E0729FE00DF11D3B
:101F80001124E60FF11DEE0FFF1FE852FF4F859160
:101F9000949108950E94B70F0E94A50E089582386B
:101FA000910569F1B0F48133910509F46DC048F4ED
:101FB0008932910509F463C08A32910509F469C038
:101FC00008958533910509F455C089339105B9F019
:101FD0000895833E910569F138F4803E9105B1F092
:101FE000823E910509F10895863E9105A9F1873E4B
:101FF0009105B9F1843E910509F064C023C0209198
:10200000BB0220FD4FC021FD4DC008958091BB0251
:1020100080FD44C08091BC0280FF44C08091BB021F
:1020200084FD42C083EE4DC08091BB0282FF38C068
:10203000F5CF8091BB0282FD33C08091BC0280FD50
:1020400031C0ECCF8091BC0281FF32C08091BB02D5
:1020500084FD2AC087EE35C08091BB0283FF26C075
:10206000F5CF8091BB0283FD21C08091BC0281FD30
:102070001FC0ECCF8091BB0285FD1CC01DC08091AC
:10208000BB0285FD19C016C08091BB0286FD16C03B
:1020900017C08091BB0286FD13C010C089E311C038
:1020A00082EE0FC080EE0DC080E00BC086EE09C04E
:1020B00084EE07C089E205C085E303C08AE201C05F
:1020C00081E390E008959091BB0292FF0DC0282F0C
:1020D0002871283019F4877F846006C0282F247166
:1020E000243011F48B7F886093FF0DC0282F287156
:1020F000283119F4877E846106C0282F2471243189
:1021000011F48B7E88612091BC0220FF0DC0382F16
:102110003871383019F4877F816006C0382F3171EB
:10212000313011F48E7F886021FF0DC0282F287177
:10213000283119F4877E816106C0282F2171213151
:1021400011F48E7E886194FD877E08951092B70207
:102150001092B8021092B9021092BA020895CF926A
:10216000DF92EF92FF926B017C010E94F1128111CC
:102170000EC00E94B61DC61AD70AE80AF90AC09214
:10218000B702D092B802E092B902F092BA02FF9080
:10219000EF90DF90CF9008950F931F930E94F1125C
:1021A000882321F01F910F910C94B61D0E94B61D3B
:1021B0000091B7021091B8022091B9023091BA0291
:1021C000600F711F821F931F1F910F91089580E070
:1021D00008950C94170D0E9466128FE39CE90197F5
:1021E000F1F700C000000E9466120E9409138111DD
:1021F00002C084E001C080E00E942B1181FF04C076
:102200000E94E9100C94131E08950C94EB100E9488
:102210001D0D811102C00E94C50D0E94280D8093E2
:1022200056020E94300D9093BC028093BB020E9424
:1022300005110E942C0D682F70E080E090E00E9454
:1022400037076091C2017091C3018091C4019091E0
:10225000C5010C946F07E82FF0E0EA53FD4F808131
:102260000895089580EA8A95F1F7089500C00895C9
:102270000C94321108950C943A110C943B110C9467
:102280003A110C943F110C943A110F931F93CF9372
:10229000DF9300D000D0CDB7DEB70E94F11260917D
:1022A000CE028823E9F119821A821B821C82862FB2
:1022B00090E08E010F5F1F4FB8018A539D4F0E941F
:1022C0002313882389F08091BD0290E044E050E020
:1022D000B8018A539D4F0E94452521E02093570263
:1022E000892B69F410E019C0809157028823D1F33B
:1022F00084E0F80111928A95E9F710925702E09173
:10230000BD02F0E0EA53FD4F89819A81AB81BC8127
:1023100080839183A283B38311E00E94B3020DC036
:1023200070E06A537D4F8091BD0290E08A539D4FCB
:102330000E94AD130E94431110E0812F0F900F9067
:102340000F900F90DF91CF911F910F910895F89406
:10235000E82FE295EF70F0E031A1282F2F7081E097
:1023600090E001C0880F2A95EAF7982F9095932363
:1023700091A392A1892B82A3789408950F931F9320
:10238000CF93DF93CAE9D1E089918F3F11F00E948A
:10239000A71181E0CE39D807B9F7C4E9D1E00AE93D
:1023A00011E089918F3F11F00E94A7110C171D07B2
:1023B000C1F7DF91CF911F910F910895CF92DF92D6
:1023C000EF92FF920F931F93CF93DF938C01C62F51
:1023D000D0E0CE0186569E4F7C01FC0190819F3F4C
:1023E00009F447C0D62EF894E92FE295EF70F0E09B
:1023F00081A19F7021E030E001C0220F9A95EAF799
:10240000822B81A382A12095282322A378940E9465
:102410003611E4E9F1E04AE951E031E0C12C2191C3
:102420002F3F89F0A22FA295AF70B0E090968C91CB
:1024300090E02F7002C0959587952A95E2F780FD70
:1024400002C0832F01C080E0C82A330F4E175F07F8
:1024500031F7F70180818F3F11F00E94A71161E0F1
:10246000C11001C060E08D2D0E943811C00FD11F36
:10247000C882DF91CF911F910F91FF90EF90DF9075
:10248000CF9008958091040180910401811102C0D0
:1024900094E001C090E09093CE0284E0891B809389
:1024A000BD020E94BE1188E0E6ECF2E0DF01982F49
:1024B0001D929A95E9F7EEEBF2E0DF011D928A9505
:1024C000E9F784E00E94BA120C94B102EF92FF92F5
:1024D0000F931F93CF93DF93CDB7DEB728970FB637
:1024E000F894DEBF0FBECDBF8E010F5F1F4F88E097
:1024F000F80111928A95E9F7F12C6F2DC8010E941D
:10250000DE11F394F4E0FF12F8CF48E050E0B80198
:102510008EEB92E00E9445257C0121E0892B09F495
:1025200020E0E114F10441F088E0F801AEEBB2E004
:1025300001900D928A95E1F76091CE0270E06A53A6
:102540007D4F44E08EEB92E00E94BB12EF2819F41D
:102550000E94451102C081E090E028960FB6F894E1
:10256000DEBF0FBECDBFDF91CF911F910F91FF90C6
:10257000EF9008950895FF920F931F93CF93DF93E9
:102580008C01F62ED72FC42F222349F081E08093AF
:102590005A020E94AA1D909359028093580280917A
:1025A0005A028823C1F080915802909159020E94EA
:1025B000C21D059780F0EF2DFD2FD8014C2F50E064
:1025C000CD01801B910B841795071CF48D9181938D
:1025D000F7CF10925A02DF91CF911F910F91FF9088
:1025E000089580915D0281110DC00E940A2581111C
:1025F00002C082E001C081E080935D02823011F46C
:102600000E94052581E090915D02913009F080E003
:1026100008950C94F1120E940913809304010E9402
:10262000F11281110C945B1308950E94F112811133
:1026300002C00C945D13089581E090915E029A307F
:1026400008F080E008950F931F93CF93DF93EC0180
:102650008B0180915E028A3038F4B801CE010E946D
:10266000AB1381111DC00AC080915B0290915C0286
:102670000E94C21D843F914080F715C080915E0288
:102680008F3F19F08F5F80935E0280915E028A30E7
:1026900060F00E94AA1D90935C0280935B0203C0CD
:1026A00010925E0202C080E001C081E0DF91CF9114
:1026B0001F910F9108950C94791A0C947C1ADF9253
:1026C000EF92FF920F931F93CF93DF937901C82F5F
:1026D000880FDD0B41155105A9F0FE0193E0EE0FC7
:1026E000FF1F9A95E1F7EB5FFE4F81819281815A3E
:1026F0009D4F208130E04217530708F49A01A90149
:102700000E945225CE010E94651BD82E8823D1F04D
:1027100001151105B9F083E0CC0FDD1F8A95E1F7B3
:10272000FE01EB5FFE4F438150E00417150708F4EC
:10273000A801CB5FDE4F6C817D81615A7D4FC7015F
:102740000E9452258D2DDF91CF911F910F91FF9007
:10275000EF90DF9008950C94CE140C94EA140F932C
:102760001F93CF93DF9300D000D0CDB7DEB7609139
:1027700074027091750280917602909177020E94A6
:10278000D11D643671058105910528F10E94CC1098
:10279000DC01CB010296A11DB11D89839A83AB8315
:1027A000BC8300E010E020E030E044E050E0BE01F7
:1027B0006F5F7F4F82E00E945F13182F882361F0C4
:1027C0000E94B61D60937402709375028093760226
:1027D0009093770201C011E0812F0F900F900F901E
:1027E0000F90DF91CF911F910F910895AF92BF92FB
:1027F000CF92DF92EF92FF920F931F93CF93DF93CD
:102800007C015B016A010E941C13811103C001E07D
:1028100010E002C00AE010E0C1E0D0E0F894B50199
:10282000C701F60109957894811115C021960C17FE
:102830001D0794F0CC9F9001CD9F300D300D1124D9
:1028400080E090E045E34A95F1F700000196821799
:102850009307C1F7E3CF81E0DF91CF911F910F91F3
:10286000FF90EF90DF90CF90BF90AF900895AF9220
:10287000BF92CF92DF92EF92FF920F931F93CF936D
:10288000DF9300D000D01F92CDB7DEB75B01E090A0
:102890009E01F0909F0101E010E09E012B5F3F4FF1
:1028A00040E050E060E070E080E00E945F13182F8D
:1028B000882309F43EC067018FEFC81AD80A6091D7
:1028C00070027091710280917202909173020E9465
:1028D000D11D643671058105910518F104E010E001
:1028E0009E012F5F3F4F40E050E060E070E081E0EC
:1028F0000E945F13182F64E070E0C6010E94C717A2
:1029000091E02D81281390E0192351F10E94B61D0A
:1029100060937002709371028093720290937302BD
:1029200011C064E070E0C6010E94C7179D81891341
:10293000D5CFF70181819281A381B48189839A8364
:10294000AB83BC83112361F089819A81AB81BC8107
:1029500080936C0290936D02A0936E02B0936F020D
:1029600080916C0290916D02A0916E02B0916F0205
:10297000F50180839183A283B383812F0F900F9001
:102980000F900F900F90DF91CF911F910F91FF90BB
:10299000EF90DF90CF90BF90AF9008950F931F936B
:1029A000CF93DF93EC018B0147E354E10E94F613D0
:1029B000882351F04FEA53E1B801CE01DF91CF9166
:1029C0001F910F910C94F61380E0DF91CF911F912E
:1029D0000F9108950F931F93CF93DF93F894C091B5
:1029E0009E01D0919F01CE01019624E0FB01DC0104
:1029F00001900D922A95E1F764E070E00E94C717FC
:102A000088837894F8946D817E818F819885009178
:102A100068021091690220916A0230916B0260177E
:102A200071078207930751F06093680270936902FF
:102A300080936A0290936B020E94AF107894DF91AA
:102A4000CF911F910F9108950E94CB1F0E94070EF6
:102A50000C94D71F0E94DB1F0E949D0E0C94F51F43
:102A60000E94481D0E94B21F0E94F50D0E9424156D
:102A70000E942A150E94FF0DFBCF80917E0280FFED
:102A800006C06091220170E0660F771F26C081FFAB
:102A900004C06091220184E005C082FF07C06091FC
:102AA000220188E0689FB001112417C090917D0237
:102AB0009923D1F060912101961788F72091220186
:102AC00088E0289F90011124929FA001939F500DB0
:102AD000112470E0CA010E9417256038710540F486
:102AE0006115710519F406C068E070E0862F08953D
:102AF0008FE7089581E0089580917E0280FF08C0ED
:102B000060911E0170E0759567957595679521C078
:102B100081FF06C060911E0170E07595679519C030
:102B200082FF04C060911E0170E010C090917C0291
:102B3000992399F060911D019617A0F780911E01CD
:102B4000899FC001112470E00E941725603871052B
:102B500040F46115710519F406C061E070E0862F3C
:102B600008958FE7089581E008958D3E21F40E9435
:102B70003D15819504C08E3E29F40E943D15809339
:102B8000820208958F3E21F40E943D15819504C074
:102B9000803F29F40E943D15809381020895893F6A
:102BA00019F40E947C1505C08A3F31F40E947C15FF
:102BB00081958093830208958B3F21F40E947C15B8
:102BC000819504C08C3F29F40E947C158093840277
:102BD00008959FE0980F983078F421E030E0A90143
:102BE00002C0440F551F9A95E2F7CA0190918002E6
:102BF000892B8093800208958D3F21F480917E027D
:102C000081600BC08E3F21F480917E02826005C0FE
:102C10008F3F29F480917E02846080937E02089524
:102C20008D3E39F49091820297FF35C01092820256
:102C300059C08E3E29F4909182021916BCF32BC024
:102C4000909181028F3E29F497FF25C01092810256
:102C500049C0803F19F41916CCF31DC0909183022E
:102C6000893F29F41916BCF4109283023BC08A3FB5
:102C700019F497FF10C0F8CF8B3F39F4909184027C
:102C800097FF09C0109284022DC08C3F21F49091CF
:102C900084021916BCF39FE0980F983080F421E06D
:102CA00030E0A90102C0440F551F9A95E2F7CA010E
:102CB00080959091800289238093800213C08D3F7C
:102CC00021F480917E028E7F0BC08E3F21F4809193
:102CD0007E028D7F05C08F3F29F480917E028B7F1D
:102CE00080937E0280918102811106C080918202D0
:102CF000811102C010927D0280918302811106C071
:102D000080918402811102C010927C0208950E9479
:102D1000AA1D20918102211104C020918202222348
:102D200021F090937B0280937A02209183022111FB
:102D300004C020918402222321F090937902809391
:102D400078028FE792E00C94171CEF92FF920F939A
:102D50001F93CF93DF9300D000D000D0CDB7DEB764
:102D600086E0EFE7F2E0DE01119601900D928A9580
:102D7000E1F7E0908102F0908202009183021091CD
:102D800084021092810210928202109283021092A9
:102D90008402E11003C0FF2009F45DC080917A0233
:102DA00090917B020E94C21DAC0190917D029923FB
:102DB00039F02091230130E02417350758F04BC03B
:102DC000209124018AE0289F9001112424173507BF
:102DD00018F041C09F3F19F09F5F90937D02EE2055
:102DE00061F00E943D151E1414F09FEF01C091E0A8
:102DF000989F902D112490938102FF2061F00E94F2
:102E00003D151F1414F09FEF01C091E0989F902D85
:102E1000112490938202309181023323E1F02091BA
:102E200082022223C1F045EB3403C001112499230F
:102E300019F09093810203C081E08093810235EB09
:102E40002303C0011124992319F09093820203C037
:102E500081E080938202011103C0112309F45DC057
:102E600080917802909179020E94C21DAC019091EC
:102E70007C02992339F020911F0130E02417350797
:102E800058F04BC0209120018AE0289F9001112426
:102E90002417350718F041C09F3F19F09F5F9093AA
:102EA0007C02002361F00E947C15101614F09FEF45
:102EB00001C091E0989F902D1124909383021123DB
:102EC00061F00E947C15111614F09FEF01C091E093
:102ED000989F902D11249093840230918302332384
:102EE000E1F0209184022223C1F045EB3403C001BC
:102EF0001124992319F09093830203C081E08093F9
:102F0000830235EB2303C0011124992319F0909318
:102F1000840203C081E08093840280918102811148
:102F20000BC080918202811107C0809183028111C0
:102F300003C08091840281110E948716EB82FC827B
:102F40000D831E8386E0FE013196AFE7B2E001906B
:102F50000D928A95E1F726960FB6F894DEBF0FBE64
:102F6000CDBFDF91CF911F910F91FF90EF9008950A
:102F7000EFE7F2E086E0DF011D928A95E9F7109213
:102F80007D0210927C0210927E0208950895FC0149
:102F9000680F791F8FEF91E3E617F70771F0219122
:102FA000822728E030E087FF03C0880F892701C00F
:102FB000880F21503109B9F7EFCF0895CF93DF93F0
:102FC000EC01FB018281882309F43CC1C430FDE59A
:102FD000DF0760F4CB3F9CE5D90788F49E012250BF
:102FE0003C452431310508F02EC109C0C236EDE55B
:102FF000DE0729F0C63AFDE5DF0709F024C10E948B
:10300000300D9093BC028093BB02C1318CE5D80790
:1030100009F4C6C008F042C0C930ECE5DE0709F487
:103020009BC000F5C5308CE5D80709F485C078F45D
:10303000C330ECE5DE0709F478C008F07AC0C2308E
:10304000DC4509F0F5C08091BB028160EFC0C7305C
:103050009CE5D90709F478C008F07AC08091BB02DA
:103060008061E4C0CD30FCE5DF0709F487C058F487
:10307000CB309CE5D90709F479C008F07BC080917A
:10308000BB0288606FC0CF30FCE5DF0709F480C069
:1030900008F082C08091BB02877FC8C0CE3F9CE50C
:1030A000D90709F471C000F5C531FCE5DF0709F463
:1030B00085C068F4C3319CE5D90709F475C008F0F0
:1030C00095C00E94DF068091BB028F77AFC0CC3FD6
:1030D000FCE5DF07A9F108F054C0CB3FDC4509F05F
:1030E000A7C08091BC0240C0C230EDE5DE0709F404
:1030F00089C058F4C1158DE5D80709F45AC008F005
:1031000069C08091BC0282602FC0C236EDE5DE0747
:1031100009F47CC0C63AFDE5DF0709F481C0C3307D
:10312000DD4509F085C080E06EC08091BB02826001
:103130007DC08091BB0216C08091BB02886076C0C2
:103140008091BC0282604FC08091BB0280626EC0E1
:103150008091BB0280646AC00E94DF068091BB023E
:10316000806864C0846062C081603DC08091BB02A1
:103170008E7F5CC08091BB028D7F58C08091BB0266
:1031800016C08091BC0218C08091BC028D7F2BC0FC
:103190008091BB028F7E4AC08091BB028F7D46C06A
:1031A0008091BB028F7B42C08091BB02877F8B7F67
:1031B0003DC08091BC028D7F8E7F15C08091BB0287
:1031C00082FB222720F991E0922790FB82F990FB65
:1031D00083F92CC08091BC02982F909591708E7FBE
:1031E000892B90FB81F98093BC0222C00E94DF06EC
:1031F0008091BB0287FB222720F991E0922790FB68
:1032000087F914C081E00E94C70D12C08091BB02F3
:1032100084FB222720F991E0922790FB84F906C0D5
:103220008091BB02982F909590FB80F98093BB0210
:103230008091BB029091BC020E94410D0E94DF066A
:1032400080E001C081E0DF91CF910895CF93DF93BB
:1032500086319C4541F5EB010E94340C982F8A8100
:103260002091020130910301882379F09A7A81E05C
:1032700009F480E080938502911102C069E201C0E7
:1032800065E3C9010E94E71C0AC080918502811193
:1032900002C069E201C065E3C9010E94F21C0E94FC
:1032A000760C80E001C081E0DF91CF9108950F930B
:1032B0001F93CF93DF93C42FD22FFC0182818823E9
:1032C000C9F0409388020E94AA1D909387028093C0
:1032D000860280E28C0F883008F057C0C77081E00A
:1032E00001C0880FCA95EAF7DF91CF911F910F9126
:1032F0000C943C0480918802481330C0809186026F
:10330000909187020E94C21D883C910538F510E219
:103310001D0FCD17B9F080E28C0F883040F4C770D4
:1033200081E001C0880FCA95EAF70E944304183073
:1033300028F581E09D2F977001C0880F9A95EAF7D4
:103340000E943C04802F0E9433041830F0F4D770A0
:1033500081E001C0880FDA95EAF70AC080E28C0F9D
:10336000883098F4C77081E001C0880FCA95EAF7E9
:10337000DF91CF911F910F910C944304802FDF9127
:10338000CF911F910F910C943304DF91CF911F9136
:103390000F9108950F939C01CB01243F4CE5340716
:1033A00031F188F4293DFCE53F07D9F02A3D4CE591
:1033B000340779F1283D3C45A9F506E221EE41EEBE
:1033C00068ED7CE52BC0263FFCE53F07E1F0A8F067
:1033D000273F3C4539F507E225EE46EE67EF7CE5F1
:1033E0001DC007E225EE45EE69ED7CE517C006E25B
:1033F00021EE40EE64EF7CE511C007E225EE44EEDD
:1034000065EF7CE50BC006E221EE42EE66EF7CE55F
:1034100005C008E221E045EE6AED7CE50E945719FF
:1034200080E008C0FC018281882319F01092880294
:1034300001C081E00F9108958EE14A9B02C0815046
:10344000E1F74A9BFECF08955A9880E28A95F1F7FA
:103450005A9A0895FC012AE02A95F1F728E090E0B5
:1034600080E031E040E14A95F1F7880F4A9B02C0C5
:103470008160932700C0000040E14A95F1F7215098
:1034800089F720E12A95F1F729B100C0000030E169
:103490003A95F1F722FB222720F992272081920FFB
:1034A00090830895EF92FF920F931F93CF93DF9332
:1034B0001F92CDB7DEB719828C017C01E60EF11C9C
:1034C0000E151F0551F00E941C1ACE0101960E9494
:1034D0002A1AF80181938F01F3CF81E0998191112C
:1034E00080E00F90DF91CF911F910F91FF90EF90AF
:1034F0000895529A5A9A089552985A9AEA9AE9E681
:10350000F0E080818F7C80830895615091E001C05C
:10351000990F6A95EAF720E031E0992361F0492F8D
:10352000482319F05A9A232701C05A9840E24A9535
:10353000F1F79695F2CF222311F05A9A01C05A98CA
:1035400080E28A95F1F75A980895FF920F931F939E
:10355000CF93DF93EC018C01060F111DC017D1072B
:1035600041F0F9900E94241A68E08F2D0E94851A7C
:10357000F5CFDF91CF911F910F91FF9008951F928A
:103580000F920FB60F9211240F931F932F933F9317
:103590004F935F936F937F938F939F93AF93BF935B
:1035A000EF93FF93CF93DF931F92CDB7DEB71982CE
:1035B0000E941C1ACE0101960E942A1A082F069515
:1035C00006950695902F96959570202F2570920F51
:1035D000292F237096959695920F877089135FC057
:1035E000898181115CC0043008F059C080E18A955E
:1035F000F1F75A9A529A82E08A95F1F700C05A98E8
:1036000088E0089F80011124D801AB5FBE4F169659
:10361000ED91FC9117973097A9F060919E01709100
:103620009F0114962D913C911597260F371F1196E7
:103630008D919C911297680F791F13964C91139757
:103640008C910995F801EB5FFE4F6381662351F081
:1036500080919E0190919F0124813581820F931F5B
:103660000E94A51A0E94241A80E18A95F1F75A98BF
:1036700052985A9A80E18A95F1F7F801EB5FFE4F74
:103680006081662351F080919E0190919F0121817C
:103690003281820F931F0E94521A0E941C1A0F90AF
:1036A000DF91CF91FF91EF91BF91AF919F918F915A
:1036B0007F916F915F914F913F912F911F910F914A
:1036C0000F900FBE0F901F9018950F931F93CF93DD
:1036D000DF93843091050CF06DC0EC01F894529AA0
:1036E0005A9885E08A95F1F700009C2F9695957081
:1036F0002C2F2570920F892F83709695969523E035
:10370000CC0FDD1F2A95E1F7980F8E01092B0E943F
:10371000241A84E08A95F1F700C068E0802F0E94A7
:10372000851A80E18A95F1F752985A9A4A9902C00F
:1037300000C0FCCF87E090E04A9B08C0019721F4CD
:10374000529A5A9A789436C000C0F6CFFE01EB5FC9
:10375000FE4F6381662381F080919E0190919F01CD
:1037600024813581820F931F0E94521A811104C057
:10377000529A5A9A78941FC00E941C1A80E28A9525
:10378000F1F75A98529A80E18A95F1F7CB5FDE4FB4
:103790006881662351F080919E0190919F0129815B
:1037A0003A81820F931F0E94A51A0E94241A7894CE
:1037B00081E001C080E0DF91CF911F910F910895CA
:1037C0009093A1018093A001089590938F0280931C
:1037D0008E0208950E94F112811103C08091890226
:1037E0000895E0918E02F0918F02309721F00190C0
:1037F000F081E02D099480E00895E0918E02F0912F
:103800008F02309799F020913101222359F02091B5
:10381000BB0227FF07C0DC012C9111962C93119756
:1038200026E02C930280F381E02D09940895E09125
:103830008E02F0918F02309739F022E0DC012C9358
:103840000480F581E02D0994089520918C02309137
:103850008D022817390771F090938D0280938C02A6
:10386000E0918E02F0918F02309721F00680F7816F
:10387000E02D0994089520918A0230918B02281737
:10388000390771F090938B0280938A02E0918E0247
:10389000F0918F02309721F00084F185E02D09949A
:1038A0000895FC01329680913101882331F0809196
:1038B000BB0287FF02C09EE101C096E080E091500C
:1038C00028F021912223D9F38F5FF9CF0895662341
:1038D00051F1209131012223E9F02091BB0227FF11
:1038E00019C0462F4695469546954E31E0F46770CF
:1038F00021E030E002C0220F331F6A95E2F7FC019D
:10390000E40FF11D828190E02823392381E0232BED
:1039100069F409C0FC01329608962191621729F0DA
:10392000E817F907D1F780E0089581E008959C0138
:10393000FC0132969FEF80E04191461789F09F3F4E
:1039400019F4411101C0982F8F5F8630A9F79F3F6E
:1039500039F0F901E90FF11D97FDFA956283089599
:1039600008959C012A5F3F4FFC014281461301C02C
:103970001282019682179307B9F70895262F26958C
:10398000269526952E3168F4FC01E20FF11D677033
:1039900021E030E001C0220F6A95EAF78281282BEE
:1039A00022830895262F2695269526952E3170F48C
:1039B000FC01E20FF11D677021E030E001C0220F31
:1039C0006A95EAF720958281282322830895209121
:1039D0003101222329F02091BB0227FD0C94BE1C4B
:1039E0000C94971C20913101222329F02091BB02D5
:1039F00027FD0C94D21C0C94B11C20913101FC01C8
:103A00003296222331F08091BB0287FF02C08EE103
:103A100001C086E0DF011D928A95E9F708950895B7
:103A20000C940F1D83E0809390020C94101D811163
:103A300002C081E001C082E0809390020C94101DCE
:103A40000C94171D81E0809390020C94101D0C942F
:103A5000221D08950C94291D0C942A1D0C94291DD7
:103A60000C94291D0C94291DCF930E94301D0E9497
:103A700066120E942E1DC0E08C2F0E942B11811116
:103A800004C0CF5FC830C1F701C081E0CF91089575
:103A900008951F920F920FB60F9211248F939F9348
:103AA000AF93BF9380919102811113C08091CF0297
:103AB0009091D002A091D102B091D2024196A11D65
:103AC000B11D8093CF029093D002A093D102B09306
:103AD000D202BF91AF919F918F910F900FBE0F9027
:103AE0001F9018958091D702843031F10E941703FE
:103AF0001092910220E488E190E00FB6F894A89526
:103B0000809360000FBE2093600083B7817F846044
:103B100083BF83B7816083BF7894889583B78E7F96
:103B200083BF0FB6F894A895809160008861809358
:103B30006000109260000FBE08950E94DF060C9492
:103B40001B0382E084BD93E095BD9AEF97BD8093FF
:103B50006E0008952FB7F8948091CF029091D00213
:103B6000A091D102B091D2022FBF08952FB7F8943F
:103B70006091CF027091D0028091D1029091D202D7
:103B80002FBF08959C014FB7F8948091CF02909178
:103B9000D002A091D102B091D2024FBF821B930BF1
:103BA0000895CF92DF92EF92FF922FB7F894C090D2
:103BB000CF02D090D002E090D102F090D2022FBF7D
:103BC000A7019601261B370B480B590BCA01B901F7
:103BD000FF90EF90DF90CF90089578941F920F920E
:103BE0000FB60F9211248F939F93AF93BF93809141
:103BF000CF029091D002A091D102B091D202019651
:103C0000A11DB11D8093CF029093D002A093D10249
:103C1000B093D202BF91AF919F918F910F900FBE41
:103C20000F901F90189587E797E79093010880936E
:103C300000089AE088E10FB6F894A8958093600098
:103C40000FBE90936000FFCF8091B5020895089554
:103C500022E02093E9002FEF3091E800215035FD5C
:103C600006C035ED3A95F1F700002111F5CF20910E
:103C7000E80025FF0BC040E050E066E070E00E94E5
:103C800067208091E8008E778093E8000895CF93B5
:103C9000DF9320913101222339F02091BB0227FFCD
:103CA00003C060E222E002C068E021E02093E90066
:103CB0002FEF3091E800215035FD06C035ED3A95E3
:103CC000F1F700002111F5CF2091E80025FF1DC07C
:103CD000EC0180913101811105C040E050E068E0C5
:103CE00070E003C070E040E050E0CE010E94672029
:103CF0008091E8008E778093E80080E2FE01A5E9DC
:103D0000B2E001900D928A95E1F7DF91CF9108958D
:103D10008093920270939402609393028091D702F1
:103D2000843001F582E08093E9008FEF9091E80004
:103D3000815095FD06C095ED9A95F1F7000081112F
:103D4000F5CF8091E80085FF0DC040E050E063E0D2
:103D500070E082E992E00E9467208091E8008E770F
:103D60008093E8000895BC0184E00C94881EBC0197
:103D700083E00C94881E8091D602811109C00E94B4
:103D8000F8210E9455228091E20084608093E20035
:103D900008951092D60208950C94271D6091D302C5
:103DA00081E0611101C080E00C94121D9091D70256
:103DB00081E0943009F080E06091D3020C94171DEB
:103DC00042E061EC81E00E94712142E261EC82E01C
:103DD0000E9471219091D70281E0943009F080E037
:103DE0006091D3020C94201D8091D902833009F494
:103DF00061C030F4813071F0823009F49AC00895C6
:103E00008A3009F486C08B3009F46CC0893009F01F
:103E1000A8C020C08091D802813A09F0A2C0809148
:103E2000E800877F8093E8008091DC029091DD02BA
:103E3000892B21F460E285E992E003C060E080E034
:103E400090E070E00E94B2208091E8008B77809330
:103E5000E80008958091D802813209F082C08091F3
:103E6000DC029091DD02029708F07BC08091E800AF
:103E7000877F8093E8008091E80082FD05C08091F3
:103E8000D7028111F8CF6DC02091F3008091F2002C
:103E900090E0922B029731F48091F100813011F083
:103EA000863021F48091F1008093B5028091E80082
:103EB0008B7753C08091D802813A09F052C080912B
:103EC000DC029091DD02892B09F04BC08091E80063
:103ED000877F8093E8008091E80080FFFCCF80918D
:103EE000310136C08091D8028132D9F58091DC024F
:103EF0009091DD02892BA9F58091E800877F80935E
:103F0000E8000E94A6218091DA02809331010C948E
:103F1000DF068091D802813221F58091E800877F09
:103F20008093E8000E94A6218091DB028093B60274
:103F300008958091D802813AA1F48091E800877FAA
:103F40008093E8008091E80080FFFCCF8091B6026A
:103F50008093F1008091E8008E778093E8000C94C4
:103F6000A621089584B7877F84BF0FB6F894A895DB
:103F700080916000886180936000109260000FBEA5
:103F800090E080E80FB6F894809361009093610010
:103F90000FBE0C94221D0E94F8210E945522E2EED1
:103FA000F0E080818460808378940C94EA2485E238
:103FB00091E00C94E51B8091D7028530A9F48091A3
:103FC000D702853079F40E94721D8091D502882332
:103FD000B1F30E94341D882391F30E9451200E9466
:103FE000DF06EDCF0C949D1D089508950C94F81FE5
:103FF000292F332723303105C9F060F421303105F2
:1040000081F02230310509F044C08BE390E02CE3CD
:1040100033E043C021323105E1F02232310549F16C
:1040200038C082E190E027E733E037C0992781303C
:10403000910549F028F0029761F5E8E1F3E005C049
:10404000E8E3F3E002C0E6E2F3E0849190E09F0150
:1040500024C06115710541F061307105D1F489E02A
:1040600090E027E633E019C089E090E02EE433E0E9
:1040700014C06115710541F06130710551F486EB92
:1040800090E029E833E009C080E490E02FE334E0D9
:1040900004C080E090E020E030E0FA01318320832A
:1040A000089580E189BD82E189BD09B400FEFDCF9C
:1040B0008091D8008F7D8093D8008091E00082604D
:1040C0008093E0008091E00081FDFCCF0895CF92C5
:1040D000DF92EF92FF920F931F93CF93DF93EC0148
:1040E0008B017A010E94C521811133C0E114F104D2
:1040F00039F0F70180819181081B190BC80FD91F76
:10410000C12CD12C0115110519F18091E80085FD14
:1041100016C08091E8008E778093E800E114F104E6
:1041200049F0F70180819181C80ED91ED182C082E9
:1041300085E00FC00E94C521882321F30AC0899120
:104140008093F10001501109FFEFCF1ADF0ADACF97
:1041500080E0DF91CF911F910F91FF90EF90DF9062
:10416000CF9008952091DE023091DF0226173707A5
:1041700048F06115710539F42091E8002E772093FD
:10418000E80001C0B901FC0120E06115710579F179
:104190008091D7028823F1F18530F1F18091E80018
:1041A00083FD3CC08091E80082FD2EC08091E80034
:1041B00080FFEBCF2091F3008091F20090E0922BF2
:1041C0006115710551F08830910538F421912093E3
:1041D000F100615071090196F3CF21E0089709F0D1
:1041E00020E08091E8008E778093E800CECF211107
:1041F000CFCF0AC08091D702882361F0853061F06B
:104200008091E80083FD0AC08091E80082FFF2CF30
:1042100080E0089582E0089583E0089581E00895A4
:104220002091DE023091DF022617370748F0611532
:10423000710539F42091E8002E772093E80001C041
:10424000B901FC0120E06115710591F18091D7025F
:10425000882309F440C0853009F43FC08091E8000C
:1042600083FD3DC08091E80082FD2FC08091E80071
:1042700080FFE9CF2091F3008091F20090E0922B33
:104280006115710559F08830910540F4249120930F
:10429000F1003196615071090196F2CF21E0089743
:1042A00009F020E08091E8008E778093E800CBCF82
:1042B0002111CCCF0AC08091D702882361F08530CC
:1042C00061F08091E80083FD0AC08091E80082FFE0
:1042D000F2CF80E0089582E0089583E0089581E0C0
:1042E0000895982F973068F59093E900981739F062
:1042F0007091EC002091ED005091F00003C0242F4C
:10430000762F50E021FD02C09F5FECCF3091EB0093
:104310003E7F3093EB003091ED003D7F3093ED0018
:104320003091EB0031603093EB007093EC00209300
:10433000ED005093F0002091EE0027FDE5CF80E0E6
:1043400008958F708093E90081E008958091D802EC
:1043500087FF11C08091E80082FD05C08091D702DF
:104360008111F8CF11C08091E8008B770BC080914C
:10437000D702882349F08091E80080FFF8CF809130
:10438000E8008E778093E80008952091E400309152
:10439000E50095E64091EC00842F817040FF23C03A
:1043A0008091E80080FD1DC08091D702882399F09C
:1043B000853099F08091EB0085FD11C04091E400BB
:1043C0005091E5002417350729F3915011F09A0117
:1043D000E1CF84E0089582E0089583E0089581E0CC
:1043E000089580E008954091E80042FFDDCF0895F0
:1043F0000E9466220E946E22E0EEF0E080818160E1
:104400008083E8EDF0E080818F77808319BCA7ED91
:10441000B0E08C918E7F8C9380818F7E8083109210
:10442000D60208950F931F93CF93DF930E946622C5
:104430000E946E22C8EDD0E088818F7788838881C2
:104440008068888388818F7D888319BC1092D70209
:104450001092D3021092D5021092D40200EE10E016
:10446000F80180818B7F808388818160888342E02E
:1044700060E080E00E947121E1EEF0E080818E7FBB
:104480008083E2EEF0E080818160808380818860BB
:104490008083F80180818E7F80838881806188831A
:1044A000DF91CF911F910F910895E8EDF0E08081A9
:1044B0008F7E8083E7EDF0E080818160808384E0FF
:1044C00082BF81E08093D6020C941222E8EDF0E0E6
:1044D00080818E7F80831092E20008951092DA002E
:1044E0001092E10008951F920F920FB60F921124BF
:1044F0002F933F934F935F936F937F938F939F93EC
:10450000AF93BF93EF93FF938091E10082FF0BC0C5
:104510008091E20082FF07C08091E1008B7F809351
:10452000E1000E94E9248091DA0080FF1FC08091A1
:10453000D80080FF1BC08091DA008E7F8093DA0064
:104540008091D90080FF0DC080E189BD82E189BDE5
:1045500009B400FEFDCF81E08093D7020E94BB1E0C
:1045600005C019BC1092D7020E94C91E8091E100BB
:1045700080FF19C08091E20080FF15C08091E200A9
:104580008E7F8093E2008091E20080618093E20060
:104590008091D80080628093D80019BC85E0809318
:1045A000D7020E94CE1E8091E10084FF30C080912E
:1045B000E20084FF2CC080E189BD82E189BD09B49D
:1045C00000FEFDCF8091D8008F7D8093D800809130
:1045D000E1008F7E8093E1008091E2008F7E8093E6
:1045E000E2008091E20081608093E2008091D3023A
:1045F000882311F084E007C08091E30087FD02C0AA
:1046000081E001C083E08093D7020E94D61E809192
:10461000E10083FF29C08091E20083FF25C08091E3
:10462000E100877F8093E10082E08093D7021092BF
:10463000D3028091E1008E7F8093E1008091E200BF
:104640008E7F8093E2008091E20080618093E2009F
:1046500042E060E080E00E9471218091F00088607B
:104660008093F0000E94CC1EFF91EF91BF91AF911B
:104670009F918F917F916F915F914F913F912F917A
:104680000F900FBE0F901F9018951F920F920FB6AC
:104690000F9211242F933F934F935F936F937F93C8
:1046A0008F939F93AF93BF93CF93DF93EF93FF933A
:1046B000C091E900CF708091EC00D82FD17080FDBF
:1046C000D0E81092E9008091F000877F8093F0009D
:1046D00078940E9489231092E9008091F00088600C
:1046E0008093F000CD2BCF70C093E900FF91EF9144
:1046F000DF91CF91BF91AF919F918F917F916F91FA
:104700005F914F913F912F910F900FBE0F901F908F
:1047100018951F93CF93DF93CDB7DEB7AA970FB647
:10472000F894DEBF0FBECDBFE8EDF2E08091F1005E
:10473000819322E0E03EF207C9F70E94F41E8091C7
:10474000E80083FF2EC18091D8029091D902492FB1
:1047500050E04A30510508F024C1FA01EE59FF4FEC
:104760000C942B25803821F0823809F01AC108C03A
:104770008091D4029091D502992389F082600FC074
:104780008091DC028F70873008F00BC18093E900C4
:104790008091EB0085FB882780F91092E9009091C9
:1047A000E800977F9093E8008093F1001092F10069
:1047B000D1C0282F2D7F09F0F4C0882319F0823052
:1047C00061F0EFC08091DA02813009F0EAC09330E5
:1047D00009F080E08093D5022EC08091DA02811129
:1047E0002AC08091DC028F702FEF280F263008F04E
:1047F000D8C08093E9002091EB0020FF1CC09330CB
:1048000021F48091EB00806214C09091EB009061E4
:104810009093EB0021E030E0A90102C0440F551F46
:104820008A95E2F74093EA001092EA008091EB004B
:1048300088608093EB001092E9008091E800877F08
:104840008093E8000E94A621ACC08111AAC01091FB
:10485000DA021F778091E3008078812B8093E30058
:104860008091E800877F8093E8000E94A6218091D4
:10487000E80080FFFCCF8091E30080688093E30034
:10488000111102C082E001C083E08093D70289C089
:104890008058823008F085C08091DA029091DB0266
:1048A0008C3D53E0950779F583E08A838AE289831A
:1048B0004FB7F894DE01139620E03EE051E2E32F7B
:1048C000F0E050935700E49120FF03C0E295EF70B1
:1048D0003F5FEF708E2F90E0EA3010F0C79601C076
:1048E000C0968D939D932F5F243149F74FBF8091E0
:1048F000E800877F8093E8006AE270E0CE010196CD
:104900000E94B22016C06091DC027091DD02AE01FF
:104910004F5F5F4F0E94F61FBC01892B09F441C015
:104920009091E800977F9093E80089819A810E9496
:1049300010218091E8008B778093E80032C08038A6
:1049400081F58091E800877F8093E8008091D30211
:104950008093F1008091E8008E7772CF811121C0A1
:104960008091DA029091DB0299270297D4F480912A
:10497000E800877F8093E8008091DA028093D30279
:104980000E94A6218091D302811106C08091E3008C
:1049900087FD02C081E001C084E08093D7020E94BD
:1049A000E01E8091E80083FF0AC08091E800877FC5
:1049B0008093E8008091EB0080628093EB00AA96E0
:1049C0000FB6F894DEBF0FBECDBFDF91CF911F9120
:1049D00008950895CF938091D7028823A1F0C091C4
:1049E000E900CF709091EC00892F817090FD80E8F4
:1049F000C82B1092E9008091E80083FD0E94892372
:104A0000CF70C093E900CF9108950E94F8211092D1
:104A1000D7020895E8EDF0E08081806180838AE12B
:104A20008A95F1F700C08091D9008170089597FBB5
:104A3000072E16F4009407D077FD09D00E94312587
:104A400007FC05D03EF4909581959F4F0895709591
:104A500061957F4F0895EE0FFF1F0590F491E02DB3
:104A60000994AA1BBB1B51E107C0AA1FBB1FA617B5
:104A7000B70710F0A61BB70B881F991F5A95A9F707
:104A800080959095BC01CD010895FB01DC0104C027
:104A90008D910190801921F441505040C8F7881B36
:104AA000990B0895FB01DC0102C001900D92415069
:104AB0005040D8F70895F999FECF92BD81BDF89A7C
:104AC000992780B50895A8E1B0E042E050E00C9449
:104AD0008F25262FF999FECF92BD81BDF89A0197B7
:104AE00000B4021639F01FBA20BD0FB6F894FA9A36
:104AF000F99A0FBE08950396272F0E946A250E94F7
:104B00006925252F0E946A25242F0C946A25019679
:104B1000272F0E946A250C946925DC01CB01FC013A
:104B2000F999FECF06C0F2BDE1BDF89A319600B406
:0E4B30000D9241505040B8F70895F894FFCF11
:104B3E00C800240201000000010000000000000077
:104B4E0004010000000405000000000000280850C9
:104B5E00011E0A1401241E471E281EB71EB31E274F
:104B6E001E01E200E900EA00B500B600B700CD0074
:104B7E008301CC008A0192019401210223022402B6
:104B8E002502260227022A02B300B4006F0070002D
:104B9E00818283E200E900EA00B500B600B700CDDD
:104BAE00008301CC008A0192019401210223022488
:104BBE00022502260227022A02B300B4006F0070FB
:104BCE0000818283F4F5F6F73133946697C65F025F
:00000001FF
