:100000000C941E020C9465020C9465020C94C11AA7
:100010000C9465020C9465020C9465020C946502C4
:100020000C9465020C9465020C94CB220C949D23D5
:100030000C94D01D0C9465020C9465020C9465021E
:100040000C9465020C9465020C9465020C94650294
:100050000C9465020C94451E0C9465020C94650288
:100060000C9465020C9465020C9465020C94650274
:100070000C9465020C9465020C9465020C94650264
:100080000C9465020C9465020C9465020C94650254
:100090000C9465020C9465020C9465020C94650244
:1000A0000C9465020C9465020C946502840484042B
:1000B000B004B004180536054E064E064105DA05B3
:1000C000EB05EB05F206F20604070407FB0604073E
:1000D00004070407F206F2060007040704070007F6
:1000E0000A2431242925312429257D24A0242925E9
:1000F000F72406252B0014001A000800150017002D
:10010000E00004001600070009000A00E1001D00DD
:100110001B00060019000500000000000000E300BD
:1001200001512C002A00130012000C0018001C00C2
:100130002F0033000F000E000D000B0029003800C7
:100140003700360010001100000000000000E6003B
:10015000025128002B001E001F0020002100220059
:10016000E00000000000000000000000E1000000CE
:100170000000000000000000000000000000E3009C
:1001800001002C002A00270026002500240023005F
:10019000000000004F00520051005000000000001D
:1001A0000000000000000000000000000000E60069
:1001B000035128002B001E023402200221022202D9
:1001C000E0001F020000000000000000E10000004D
:1001D0000000000000000000000000000000E3003C
:1001E00003512C002A0027022602250224022302A2
:1001F000301454003200340030003800320234022F
:1002000030022F0264026400000000000000E600DB
:1002100001002800005C00000000000004530454AA
:10022000C35CC65CC85CCA5C00000000C45CC75C00
:10023000C95CCB5C00000000000000000000E3008F
:1002400001002C0000000000000000000000000081
:10025000000000000000000000000000000000009E
:100260000000000000000000000000000000E600A8
:100270000100280045003A003B003C003D003E00E4
:10028000000000000000000000000000000000006E
:10029000000000000000000000000000000000005E
:1002A00010500000440043004200410040003F0065
:1002B000000000000000000000000000000000003E
:1002C0000000000000000000000000000000E60048
:1002D000000000000C0343006F0072006E00650018
:1002E0000000100366006F006F007300740061006F
:1002F0006E0000000403090409023B00020100A093
:10030000FA090400000103010100092111010001A3
:100310002240000705810308000A090401000103C7
:1003200000000009211101000122B6000705820327
:1003300020000A12010002000000085346010001DB
:10034000000102000105010902A10185020901A1C4
:100350000005091901290815002501950875018175
:10036000020501093009311581257F950275088143
:100370000609381581257F950175088106050C0A47
:1003800038021581257F950175088106C0C00501D9
:100390000980A101850319012AB700150126B700BC
:1003A000950175108100C0050C0901A10185041992
:1003B000012AA002150126A002950175108100C036
:1003C00005010906A1018506050719E029E71500C1
:1003D00025019508750181020507190029EF15000F
:1003E000250195F07501810205081901290595057A
:1003F00075019102950175039101C005010906A1DE
:1004000001050719E029E715002501950875018107
:10041000029501750881010507190029FF150026BD
:10042000FF00950675088100050819012905950545
:1004300075019102950175039101C00011241FBE41
:10044000CFEFDAE0DEBFCDBF04B603FE27C0809158
:10045000CC029091CD02A091CE02B091CF02873014
:10046000904BA740B04BD1F41092CC021092CD0229
:100470001092CE021092CF0214BE84B7877F84BF41
:100480000FB6F894A8958091600088618093600011
:10049000109260000FBEE0E0F8E3099511E0A0E0E3
:1004A000B1E0EEEEFBE402C005900D92AA3AB1076E
:1004B000D9F722E0AAEAB1E001C01D92AC3CB20734
:1004C000E1F70E943E150C94F5250C94000081E0A4
:1004D000089581E008950C94690208950C946D02CA
:1004E0001F93CF93DF9300D000D01F92CDB7DEB71C
:1004F00049835A836B833091AC0189819A81311190
:1005000014C0662359F0222349F00E949808182F3E
:10051000682F89819A810E943F0803C00E946B085E
:10052000182F69817A81812F04C00E9498086981FF
:100530007A810F900F900F900F900F90DF91CF91D5
:100540001F910C94BA0FFC01262F408151816281CA
:10055000738184810C94700281E00895CF93DF93BE
:10056000EC0160E00E94A302BE01DF91CF910C94E8
:100570006E020E940A110E9437030C9444110C94DD
:10058000401180E00C94380308950C94C4020E943A
:10059000E0060E94C5022FEF84E39CE021508040DA
:1005A0009040E1F700C000000C946B1E0F931F9366
:1005B000CF93DF938C0161E00E94A302EC01B801AC
:1005C0000E946B028823F1F1B801CE010E94CC1980
:1005D0008823C1F1B801CE010E94F617882391F15A
:1005E000B801CE010E942819882361F1F8018281A7
:1005F000882309F1CB358DE5D807C1F050F4C1153A
:10060000FCE5DF0781F0CF3DDC45A9F40E94C20D77
:1006100019C0CC35EDE5DE0761F0CD35DD4559F487
:100620000E94050D08C00E94C7020CC00E940E0D5A
:1006300002C00E94110DC801DF91CF911F910F914F
:100640000C94670280E0DF91CF911F910F91089584
:100650000C94C4020E944A1C0E9438030C94280384
:1006600008950C94300381E008950C9433030895A9
:10067000CF93C82F0E9431038C2F0E943503CF9156
:100680000895CF93DF93CDB7DEB72B970FB6F894CD
:10069000DEBF0FBECDBF4F83588769877A878B87B0
:1006A00061110E945E0C9E012F5F3F4F86E0F901B1
:1006B00011928A95E9F785E0FE013796D9010190FC
:1006C0000D928A95E1F789819A814C815D81452B54
:1006D00031F09F3F31F491E08F3F19F403C091E076
:1006E00001C090E090FF09C049815A816B817C81F3
:1006F0008D819E810E947F0B05C0C9010E94AC02C2
:100700008111F2CF2B960FB6F894DEBF0FBECDBF8E
:10071000DF91CF910895FC01808191810E94DA08D8
:100720000895CF93882309F450C0C82F8CEF8C0F05
:10073000813AD0F46C2F80910201909103010E94C4
:10074000C71C882349F06C2F80910201909103010E
:100750000E94521D0E94830C6C2F80910201909187
:1007600003010E94471D0CC080E28C0F883058F4B2
:10077000C77081E001C0880FCA95EAF70E94410C5A
:10078000CF910C94830CEBE5EC0FE33040F4F0E0F8
:10079000EA59FE4F808190E0CF910C94851CE8E5EA
:1007A000EC0FE73150F4F0E0EE0FFF1FE85CFE4F76
:1007B00080819181CF910C949B1CCD3E30F08C2F89
:1007C0000E94CD15CF910C949F16CF910895882348
:1007D00089F19CEF980F913A40F4682F80910201C3
:1007E000909103010E94521D0DC090E2980F983025
:1007F00058F4877091E001C0990F8A95EAF7892F24
:100800000E94470C0C94830C9BE5980F933020F4C6
:1008100080E090E00C94851C98E5980F973120F4C7
:1008200080E090E00C949B1C8D3E20F00E942816E6
:100830000C949F1608951F93CF93DF93182FEB010D
:100840000E949103209741F08FE99FE00197F1F713
:1008500000C000002197F6CF812FDF91CF911F912B
:100860000C94E703893319F060E070E002C060E5A2
:1008700070E00C941B04882321F00E94410C0C941E
:10088000830C0895882321F00E94470C0C94830C5C
:100890000895CF92DF92EF92FF920F931F93CF9321
:1008A000DF937C01D62FC72FFC01128105810295B1
:1008B0000F700E94370C8823B9F01123A9F08C2FF8
:1008C000807F803421F080E28D0F883068F0809145
:1008D000A70282FD09C082E00E94D30C0E94370C5F
:1008E00091E0D82ED92601C0D12CCC2EC2948FE015
:1008F000C8228C2D90E08C30910508F0CFC1FC010E
:10090000EA5AFF4F0C9483258C2F807FCF70882369
:1009100011F0C295C07F112399F0CC2309F4AAC12C
:1009200080E28D0F883010F0D11104C08C2F0E940E
:10093000410C03C08C2F0E94510C0E94830C9AC161
:100940008D2F0E94E703CC2309F4A8C180E28D0F0C
:10095000883038F1DD2329F18C2F0E94570C24C0F8
:100960008C2F807FCF70803211F0C295C07FDD2345
:1009700019F0D130A1F13DC08091A70282FF17C0CC
:10098000112349F0CC2329F08C2F0E94410C0E94A6
:10099000830C80E070C180E00E94E703CC2309F45F
:1009A0007DC18C2F0E94470C0E94830C77C11123BC
:1009B00071F0002341F0013031F40E94640C8C2B63
:1009C0000E946C0C6BC10E94640C8C2B1DC0002318
:1009D00019F0013009F462C10E94790C25C011237D
:1009E00021F0063008F05AC10EC0053008F056C19B
:1009F0001BC0112361F0002331F0F701858180FFD6
:100A000039C18F7085838C2F0E943B0447C100231E
:100A100059F0D93309F03FC1FFEF07EE13E0F15071
:100A200000401040E1F735C18C2F0E94420436C1CE
:100A30008C2F86958695837019F0813061F02EC1D8
:100A4000112321F08D2F9C2F937002C080E090E045
:100A50000E94851C2BC1112321F08D2F9C2F937098
:100A600002C080E090E00E949B1C20C18D2F1123CA
:100A700019F00E94CD1502C00E9428160E949F16F0
:100A800015C18C2F837009F047C011110BC12D2F98
:100A9000229526952770220F220F6D2F6F70862FBB
:100AA00090E0A0E0B0E0022E04C0880F991FAA1FBA
:100AB000BB1F0A94D2F7D4FF10C04FE050E060E0B3
:100AC00070E004C0440F551F661F771F2A95D2F7A8
:100AD000409550956095709503C040E050E0BA0194
:100AE000C695C695C3708A019B01082B192B2A2B2A
:100AF0003B2BC901B801C23049F058F4C13019F09C
:100B00000E945507CFC00E944307CCC00E946707D0
:100B1000C9C00E944107C6C0112319F08C2F8170F3
:100B200001C08695882309F4BDC02D2F22952695F6
:100B30002770220F220F6D2F6F70862F90E0A0E09C
:100B4000B0E0022E04C0880F991FAA1FBB1F0A9491
:100B5000D2F7D4FF10C04FE050E060E070E004C076
:100B6000440F551F661F771F2A95D2F74095509561
:100B70006095709503C040E050E0BA01C695C695F7
:100B8000C3708A019B01082B192B2A2B3B2BC9010F
:100B9000B801C23049F058F4C13019F00E941A0867
:100BA00081C00E9408087EC00E942C087BC00E9461
:100BB0007B0778C0CF70112339F08C2F0E94A107DA
:100BC0008D2F0E943B046EC08D2F0E9442048C2FFB
:100BD0000E94C20767C0D23F21F128F4D03F41F004
:100BE000D13FC1F043C0D33F19F1D43F79F03EC0AB
:100BF000112341F0053008F051C08C2F8F710E94F5
:100C0000E7074CC0063008F049C0F7CF8091A70233
:100C100082FF18C0112339F08C2F8F710E94A10719
:100C20003DC01123C9F38C2F8F710E94C20736C0BB
:100C3000112329F08C2F8F710E948C072FC00E94E6
:100C400087072CC0112349F0CF718C2F0E94A10778
:100C500063E08C2F0E94B80C21C081E00E94D30C6D
:100C60000230E0F082E00E94D30C18C0112331F072
:100C7000002391F28D2F0E94910310C0002399F25E
:100C8000D93349F41FEF27EE33E0115020403040B4
:100C9000E1F700C000008D2F0E94E70388EF8C0D64
:100CA000843020F40E944A1C0E943803DD20C9F0E1
:100CB0000E94330C80FD15C0F70112820E942D0C9A
:100CC0000E94A107C7010E9492060E942D0CDF918D
:100CD000CF911F910F91FF90EF90DF90CF900C94E8
:100CE000C207DF91CF911F910F91FF90EF90DF909E
:100CF000CF9008950F931F93CF93DF93EC016881FA
:100D000079818A810E94E5088C010E943E080E9438
:100D10002F07B801CE010E944904DF91CF911F91A6
:100D20000F910895CF93DF93EC01988189812B81F6
:100D30003C81232B31F08F3F31F481E09F3F19F448
:100D400003C081E001C080E080FD1DC0CE010E9493
:100D5000D602811110C00E94370C8823A1F08A812D
:100D6000882389F08091A70282FD0DC082E0DF9187
:100D7000CF910C94D30CCE010E947A06CE01DF9164
:100D8000CF910C94AE02DF91CF91089580E090E076
:100D90000E94851C80E090E00E949B1C0E945E0CDB
:100DA0000E94610C0E94830C0E94D0170C949F1625
:100DB00080910201909103010E945D1D0C94C60672
:100DC0000E944E0C0C94D806E92FE295EF704E2F3E
:100DD00050E0FA013297EE30F105B0F4EE59FF4FD2
:100DE0000C948325803F91F018F4883E68F40EC07F
:100DF000843F51F40BC0883E48F0813F29F406C07F
:100E000093FB882780F9089580E0089581E0089594
:100E1000FC01808191810E94DA080E94E406089515
:100E2000CF93DF9300D000D01F92CDB7DEB70F90E5
:100E30000F900F900F900F90DF91CF910895CF9367
:100E4000DF9300D000D000D0CDB7DEB726960FB626
:100E5000F894DEBF0FBECDBFDF91CF910895089506
:100E600008950C9430070C9431070E943307609367
:100E7000CF017093D0018093D1019093D2010C9453
:100E8000C6060C9435070F931F930091CF01109164
:100E9000D0012091D1013091D201602B712B822B96
:100EA000932B1F910F910C9435070F931F93009173
:100EB000CF011091D0012091D1013091D201602356
:100EC0007123822393231F910F910C9435070F9365
:100ED0001F930091CF011091D0012091D101309149
:100EE000D20160277127822793271F910F910C94BD
:100EF00035070C9430070E9479076093CB017093FB
:100F0000CC018093CD019093CE010C94C60660E095
:100F100070E0CB010C947B070F931F9341E050E0EE
:100F200060E070E08A019B0104C0000F111F221FC6
:100F3000331F8A95D2F7C901B8011F910F910C9404
:100F40007B070F931F9341E050E060E070E004C026
:100F5000440F551F661F771F8A95D2F78091CB01EA
:100F60009091CC01A091CD01B091CE018A019B015D
:100F7000082B192B2A2B3B2BC901B8011F910F916C
:100F80000C947B070F931F9341E050E060E070E00A
:100F900004C0440F551F661F771F8A95D2F74095EE
:100FA0005095609570958091CB019091CC01A09166
:100FB000CD01B091CE018A019B01082319232A2378
:100FC0003B23C901B8011F910F910C947B070F932C
:100FD0001F9341E050E060E070E004C0440F551FF3
:100FE000661F771F8A95D2F78091CB019091CC0133
:100FF000A091CD01B091CE018A019B01082719274C
:101000002A273B27C901B8011F910F910C947B0738
:101010000F931F930091CB011091CC012091CD0132
:101020003091CE01602B712B822B932B1F910F914E
:101030000C947B070F931F930091CB011091CC016F
:101040002091CD013091CE0160237123822393231F
:101050001F910F910C947B070F931F930091CB016D
:101060001091CC012091CD013091CE0160277127E4
:10107000822793271F910F910C947B070895292FA6
:10108000220F920F990F890FE82FE695E695E695C6
:10109000877051E001C0550F8A95EAF785E0E89F17
:1010A000F0011124E355FE4F20E030E070E0408174
:1010B000CB01022E02C0969587950A94E2F78170C3
:1010C000819584278523842781932F5F3F4F253087
:1010D000310569F70895292F220F920F990F890F73
:1010E000682F669566956695982F977085E0689F3E
:1010F000B001112440E050E080E0FB01E40FF51F57
:10110000E355FE4F208130E0092E02C03695279529
:101110000A94E2F721703327042E01C0220F0A94AB
:10112000EAF7822B4F5F5F4F4530510531F7089545
:10113000BF92CF92DF92EF92FF920F931F93CF93C4
:10114000DF938C01C090CB01D090CC01E090CD0119
:10115000F090CE018091CF019091D001A091D1016A
:10116000B091D201C82AD92AEA2AFB2ACFE1D0E0DD
:10117000D701C6010C2E04C0B695A7959795879503
:101180000A94D2F780FD04C0219790F7B12C07C0D4
:10119000BC2EB8018C2F0E94CD0F0197A9F38B2D87
:1011A000DF91CF911F910F91FF90EF90DF90CF9043
:1011B000BF900895CF93DF93EC010E949808BE0181
:1011C0000E94CD0FDF91CF9108951F93CF93DF93AE
:1011D000EB019091AC01992321F0CB010E94DA0838
:1011E00013C0882349F0CB010E949808182F682F5C
:1011F000CE010E943F0804C0CB010E946B08182F4B
:10120000BE01812F0E94CD0FDF91CF911F910895D4
:101210001F93CF93DF93C091D30116E08091D40147
:10122000C81799F0D0E01C9FF0011D9FF00D11240C
:10123000EB52FE4F4081518162817381848195819F
:101240000E941F072196C770E9CFDF91CF911F91B0
:101250000895409105025091060260910702709135
:1012600008028091090290910A020C941F07EF92E4
:10127000FF920F931F93CF93DF9380910A02829581
:101280008F7009F065C080910702882309F460C05F
:101290008091D301F090D4011091050200910602D3
:1012A000609108027091090291E01F3F09F090E0FF
:1012B000C0910001D0910101292F96E0E92E8F15F0
:1012C00009F446C06115710521F00F3F21F030E0AF
:1012D00003C031E001C0322F90E030FD36C0E89EFF
:1012E000F001E99EF00D1124DF01AB52BE4F1196C3
:1012F0003C911197301329C03C91311326C01296AE
:101300003C911297311121C013964D915C91149725
:10131000461B570B4C175D07C0F480910A028F7073
:10132000806180930A02E652FE4F80818F70806157
:10133000808385E092E00E949206DF91CF911F9119
:101340000F91FF90EF900C94080901968770B7CF2A
:10135000DF91CF911F910F91FF90EF9008959F9291
:10136000AF92BF92CF92DF92EF92FF920F931F93B3
:10137000CF93DF93CDB7DEB761970FB6F894DEBF9A
:101380000FBECDBF8C0185E0F801DE011D960190F6
:101390000D928A95E1F7D8011296EC909091050292
:1013A000E0910602209108023091090221153105D1
:1013B00031F0EF3F31F481E09F3F19F403C081E049
:1013C00001C080E0B82FB1709B2E80FD47C1D801CD
:1013D0004C9111965C9111971396AD90BC90149717
:1013E00085E0C82E82E0D82EF0900702B501621B7E
:1013F000730B2091000130910101FF2009F4D9C045
:1014000080910A026217730708F095C0282F207F89
:1014100009F052C05E1313C0491311C0FE2CE11035
:101420000EC08F70806180930A020E942909C60154
:101430000E94920680910A02F80185834DC1AB2873
:1014400031F05F3F31F481E04F3F19F403C081E098
:1014500001C080E080FD03C081E08E2502C080E0F5
:1014600090E0F82FF170FF2E80FF1CC08091D30117
:101470002091D40136E0821709F40BC190E0389F27
:10148000F001399FF00D1124EB52FE4F618156138C
:1014900006C06081461303C06281E61203C0019654
:1014A0008770E9CFFE2CEE2009F416C180910A0264
:1014B000816080930A0254C05E1306C0491304C0C1
:1014C000E11002C0F80199C0C8010E9408078823F2
:1014D00061F1EE2051F120910A02822F82958F70E6
:1014E00090E0029774F0809105029091060298872F
:1014F0008F831986BB86AA862C87CE0107960E9409
:10150000920686E0F801A5E0B2E001900D928A957E
:10151000E1F70E9437090E9429090AC05E1711F1FC
:10152000C8010E94080781112CC0C8010E949206C0
:10153000FF24F394D1C0282F207F81F77A2DB98A18
:10154000A88A6E2D89890E94100785E092E00E948A
:10155000920686E0D6011D928A95E9F70E94290934
:10156000F12CBAC04913DCCFE110DACFF801858342
:10157000C8010E94920686E0D6011D928A95E9F77D
:10158000ABC0EE2091F220910A02822F82958F70DB
:1015900090E002970CF4B5CF80910502909106027D
:1015A0009A8389831B82BD82AC822E83CE010196F1
:1015B000A6CF6217730708F044C0FE2CEE2009F492
:1015C000B4CF5E1330C049132EC020910A0220FD13
:1015D00021C0822F82958F70482F50E04115510510
:1015E000C9F0F80125834F30510541F08F5F982FE6
:1015F0009295907F822F8F70892B8583C8010E94DE
:10160000920686E0F801A5E0B2E001900D928A957D
:10161000E1F73CC086E0F801A5E0B2E001900D9250
:101620008A95E1F759C0C8010E940807811169CF66
:1016300080910A02816080930A02C8010E9492068A
:101640004BC07A2DB98AA88A6E2D89890E9410070D
:1016500086E0D6011D928A95E9F718C0EE2009F4BC
:1016600064CFC8010E940807F82E882309F45DCFD3
:1016700086E0F801A5E0B2E001900D928A95E1F7CD
:1016800085E092E00E948B030E9437090E9429099D
:1016900023C04D875E878D859E850E94DA08292F9D
:1016A00022952F70223028F49F7039F0811105C0E7
:1016B0000BC0243028F49F7049F4805E883020F0FD
:1016C000C8010E9492069F2CF92C06C0D8011596DD
:1016D0009C91907F91F7F8CF8F2D61960FB6F8947B
:1016E000DEBF0FBECDBFDF91CF911F910F91FF9055
:1016F000EF90DF90CF90BF90AF909F9008951F9391
:10170000CF93DF93CDB7DEB72C970FB6F894DEBF3B
:101710000FBECDBF4F83588769877A878B879C8799
:10172000CE0107960E94AF098823D1F09F8188855A
:101730002A853B85232B31F08F3F31F481E09F3F99
:1017400019F403C081E001C080E080FD47C04F81F3
:10175000588569857A858B859C850E941F073EC0C8
:1017600086E0FE013796DE01119601900D928A9572
:10177000E1F7FF81E8856A857B856115710531F0A8
:10178000EF3F31F481E0FF3F19F403C081E001C075
:1017900080E080FD23C02091D40130E0C901019692
:1017A000877099274091D30150E084179507F1F194
:1017B000F983EA837D836C8396E0929FD001939FA7
:1017C000B00D1124AB52BE4FFE01319601900D9227
:1017D0009A95E1F78093D4010E94080916E0809160
:1017E000D3019091D401891771F1189FC001112480
:1017F0008B529E4F0E94AF09882329F1E091D301BB
:101800001E9FF0011124EB52FE4F408151816281F5
:101810007381848195810E941F078091D30190E09C
:101820000196877099278093D301D9CF0E94E00653
:101830001092D4011092D301E5E0F2E086E0DF01DE
:101840001D928A95E9F72C960FB6F894DEBF0FBE6D
:10185000CDBFDF91CF911F91089580910B028595A7
:1018600085958595089580910B02877008959091D4
:101870000B02977081E009F480E0089580912F02B7
:10188000089590912F02892B80932F0208958095BF
:1018900090912F02892380932F02089510922F0296
:1018A000089590912E02892B80932E0208958095A1
:1018B00090912E02892380932E02089510922E0279
:1018C000089510922D02089580910C0208950895B4
:1018D0000C94670C0C94680C9091A70292FD08C0C0
:1018E00090910C02981721F080930C020C946A0CD2
:1018F000089580910C02882329F010920C0280E058
:101900000C946A0C0895E0910201F091030180911A
:101910002F028083E0910201F09103019081809178
:101920002E02892B8083E0910201F09103019081C6
:1019300080912D02892B808380910C02882381F075
:10194000E0910201F09103019081892B80838091C5
:101950000201909103010E94B11C81110E94790C37
:1019600080910201909103010C945D1C0C94670C12
:101970009091A70292FD10C098E0899F90011124D8
:10198000262B20930B020E94A10780910B028595C4
:10199000859585950C94B60C0C94A10710920B02BA
:1019A00080E00C94B60C20910B02809582238093EA
:1019B0000B02982F977099F430E0482F082E000CF6
:1019C000550B2417350759F09091A70292FD07C0D7
:1019D0008595859585950E94C2070C94CE0C089537
:1019E0009091A70292FB222720F9281769F080FB2B
:1019F00092F99093A7028091A6029091A7020E946B
:101A00003E0D82E00C94D30C08958091A70282FBD6
:101A1000882780F991E089270C94F00C81E00C94E0
:101A2000F00C80E00C94F00C6FEF7FEF80E090E022
:101A30000C94DF2580E090E00E94BB2521E0893EE8
:101A40009E4F09F020E0822F089582E090E00C94F0
:101A5000B32583E090E00C94B325CF9384E090E02D
:101A60000E94B325C82F82E290E00E94B3252C2F5C
:101A700030E0A901582BCA01CF910895CF93C92F07
:101A8000682F84E090E00E94C1256C2F82E290E0F4
:101A9000CF910C94C125AB01BC018FE090E00C9478
:101AA000D325AB01BC0183E190E00C94D32560E029
:101AB00070E0CB010C94510D60E070E0CB010E940E
:101AC0004B0D0C94570D69EE7EEF80E090E00E9484
:101AD000DF2560E082E090E00E94C12560E083E0C5
:101AE00090E00E94C1251092CF011092D001109277
:101AF000D1011092D20160E084E090E00E94C12503
:101B000060E082E290E00E94C12560E085E090E024
:101B10000E94C12560E086E090E00E94C1256FEF41
:101B200087E090E00E94C12540E050E0BA0188E0E3
:101B300090E00E94D32560E08DE090E00E94C125F6
:101B400040E050E0BA0188E190E00E94D32560E0D7
:101B500087E190E00E94C12540E050E0BA018CE1AD
:101B600090E00E94D32560E070E080E290E00E9467
:101B7000DF2540E050E0BA0188E190E00E94D325E3
:101B80000C945C0D0C94630D682F8EE090E00C9427
:101B9000C1250E940E1E60933D0270933E02809309
:101BA0003F02909340026093390270933A0280930F
:101BB0003B0290933C02089585B7806885BF85B746
:101BC000806885BF08950C94F91208950C94E50D72
:101BD0000C94E50D0C94E80D0C94E50D0C94EC0DB3
:101BE0000C94E50D0E94DC0D8AEE90E10E94401CF1
:101BF0000E94F00D0C94EE0D0E94E60D0C94E50D84
:101C00000E94F91D0E94A9100E94E4110E94DE1793
:101C10000C94EA0D9F92AF92BF92CF92DF92EF9217
:101C2000FF920F931F93CF93DF93CDB7DEB72A9721
:101C30000FB6F894DEBF0FBECDBF0E946E128111A9
:101C40000E94C90D81E3A82E82E0B82E00E010E0CA
:101C5000902E802F0E942E11D82EF501C1905F0189
:101C6000C826B1F40F5F1F4F0830110589F78FEFB9
:101C700089838A831B820E94021E8160782F9D8344
:101C80008C8349815A816B818D810E9441032FC0D1
:101C90008091410281FD0E943411E12CFF24F394D4
:101CA0008C2D8F21F1F00E94E30D882399F0EE82B4
:101CB0009F82DF2081E009F480E088870E94021E75
:101CC0008160782F9A8789874E815F8168858A85B0
:101CD0000E944103F801EF5CFD4F8081F826F082FD
:101CE00006C0E394FF0CF6E0EF12DACFBBCF0E9400
:101CF000BD160E944A1C909130028917B9F00E94CB
:101D00004A1C809330022A960FB6F894DEBF0FBEAD
:101D1000CDBFDF91CF911F910F91FF90EF90DF909A
:101D2000CF90BF90AF909F900C9438032A960FB637
:101D3000F894DEBF0FBECDBFDF91CF911F910F9101
:101D4000FF90EF90DF90CF90BF90AF909F9008955D
:101D5000CF93DF930E94D20FEC01811521E592070A
:101D600008F045C0811530E5930708F094C0883E1F
:101D7000910528F5803E910508F0F8C0883A910554
:101D800070F4853A910508F07CC08130910509F422
:101D900075C008F4E8C0049708F0E8C0E4C08F3BC1
:101DA000910508F0E0C0C85AD0E0CC0FDD1FC7593C
:101DB000DE4F0990D881C02DCE019464D8C0811522
:101DC00040E2940758F4811551E0950708F0CEC021
:101DD0008D3E910508F4C7C09065C9C0C11580E467
:101DE000D80708F4C0C0DF70CE01906AC0C081156A
:101DF00025E59207A8F4811534E5930708F095C00E
:101E0000811543E5940708F07BC0811552E59507DD
:101E100008F061C0D82FCC27CE01816F906AA7C08F
:101E2000C11589E5D807A0F4C11528E5D20708F047
:101E300082C0C11536E5D30708F095C08C2F0E94EB
:101E400066108F7190E0D82FCC27CE0190628FC0A2
:101E5000C1154AE5D40708F474C0CE019056811527
:101E6000904208F080C08D2F8F710E946610DD2790
:101E7000D0628F71AE01582BCA0179C081E090E029
:101E800076C0C55AD0E0C956DE4F8881C82FD0E051
:101E9000CE0190646CC074E0969587957A95E1F7D1
:101EA000282F23703C2F337081E090E002C0880F10
:101EB000991F3A95E2F79C68AC01522B9A019C2F2E
:101EC0009F709695969550E2959FE0011124C90167
:101ED0008C2B9D2B4CC08370992721E030E002C0F1
:101EE000220F331F8A95E2F79C2F9695969580E2F4
:101EF000989FE0011124C22BD32BCE019C6837C0E0
:101F00008370992721E030E002C0220F331F8A95A9
:101F1000E2F79C2F9695969540E2949FE00111245C
:101F2000C22BD32BCE019A6822C0D82FCC27CE014A
:101F3000846F906A1CC0DC2FCC27CE01806F906A22
:101F400016C08C2F8F700E94661094E0D695C795AE
:101F50009A95E1F7CF70D0E0DC2FCC27D0699E01B5
:101F6000282BC90104C080E090E001C0CE01DF91C0
:101F7000CF91089520E3829FC0011124FC0126E047
:101F8000729FE00DF11D1124E60FF11DEE0FFF1FF2
:101F9000EC50FF4F8591949108950E94BA0F0E94D2
:101FA000A80E08958238910569F1B0F48133910546
:101FB00009F46DC048F48932910509F463C08A328E
:101FC000910509F469C008958533910509F455C058
:101FD00089339105B9F00895833E910569F138F48C
:101FE000803E9105B1F0823E910509F10895863E4B
:101FF0009105A9F1873E9105B9F1843E910509F05B
:1020000064C023C02091A60220FD4FC021FD4DC019
:1020100008958091A60280FD44C08091A70280FFB0
:1020200044C08091A60284FD42C083EE4DC08091E1
:10203000A60282FF38C0F5CF8091A60282FD33C090
:102040008091A70280FD31C0ECCF8091A70281FF73
:1020500032C08091A60284FD2AC087EE35C08091EF
:10206000A60283FF26C0F5CF8091A60283FD21C082
:102070008091A70281FD1FC0ECCF8091A60285FD53
:102080001CC01DC08091A60285FD19C016C080919C
:10209000A60286FD16C017C08091A60286FD13C059
:1020A00010C089E311C082EE0FC080EE0DC080E049
:1020B0000BC086EE09C084EE07C089E205C085E347
:1020C00003C08AE201C081E390E008959091A602E6
:1020D00092FF0DC0282F2871283019F4877F846063
:1020E00006C0282F2471243011F48B7F886093FF61
:1020F0000DC0282F2871283119F4877E846106C00D
:10210000282F2471243111F48B7E88612091A7023D
:1021100020FF0DC0382F3871383019F4877F816067
:1021200006C0382F3171313011F48E7F886021FF65
:102130000DC0282F2871283119F4877E816106C0CF
:10214000282F2171213111F48E7E886194FD877EC4
:1021500008951092A2021092A3021092A40210926B
:10216000A5020895CF92DF92EF92FF926B017C015E
:102170000E94F91281110EC00E940E1EC61AD70AC3
:10218000E80AF90AC092A202D092A302E092A40245
:10219000F092A502FF90EF90DF90CF9008950F93FB
:1021A0001F930E94F912882321F01F910F910C9424
:1021B0000E1E0E940E1E0091A2021091A3022091F9
:1021C000A4023091A502600F711F821F931F1F91FF
:1021D0000F91089580E008950C94140D0E946E12E2
:1021E0008FE39CE90197F1F700C000000E946E1296
:1021F0000E941113811102C084E001C080E00E949E
:102200002E1181FF04C00E94EC100C946B1E0895E7
:102210000C94EE100E941A0D811102C00E94C20D92
:102220000E94250D809341020E942D0D9093A702DC
:102230008093A6020E9408110E94290D682F70E069
:1022400080E090E00E9441076091CB017091CC0149
:102250008091CD019091CE010C947907E82FF0E0A8
:10226000E055FD4F80810895089580EA8A95F1F741
:10227000089500C008950C94351108950C943D11F3
:102280000C943E110C943D110C944211F894E82FDB
:10229000E295EF70F0E031A1282F2F7081E090E0FF
:1022A00001C0880F2A95EAF7982F9095932391A360
:1022B00092A1892B82A37894089508950C945D11BE
:1022C0000F931F93CF93DF93C0EAD1E089918F3FA3
:1022D00011F00E94461181E0C43AD807B9F7CAE963
:1022E000D1E000EA11E089918F3F11F00E94461180
:1022F0000C171D07C1F7DF91CF911F910F91089522
:10230000CF92DF92EF92FF920F931F93CF93DF93C1
:102310008C01C62FD0E0CE0180569E4F7C01FC017F
:1023200090819F3F09F447C0D62EF894E92FE2959B
:10233000EF70F0E081A19F7021E030E001C0220F3A
:102340009A95EAF7822B81A382A12095282322A3C4
:1023500078940E943911EAE9F1E040EA51E031E075
:10236000C12C21912F3F89F0A22FA295AF70B0E030
:1023700090968C9190E02F7002C0959587952A9544
:10238000E2F780FD02C0832F01C080E0C82A330F2E
:102390004E175F0731F7F70180818F3F11F00E94E0
:1023A000461161E0C11001C060E08D2D0E943B111B
:1023B000C00FD11FC882DF91CF911F910F91FF9065
:1023C000EF90DF90CF9008950E9413138091040145
:1023D00080910401811102C094E001C090E09093CB
:1023E000B90284E0891B8093B8020E94601188E0E2
:1023F000E0EBF2E0DF01982F1D929A95E9F7E8EA09
:10240000F2E0DF011D928A95E9F784E00E94C21292
:102410000E94B9020C941D130F931F93CF93DF9367
:1024200000D000D0CDB7DEB70E94F9126091B9029A
:102430008823E9F119821A821B821C82862F90E080
:102440008E010F5F1F4FB80180559D4F0E942B13C7
:10245000882389F08091B80290E044E050E0B80110
:1024600080559D4F0E949D2521E020934202892B9B
:1024700069F410E019C0809142028823D1F384E00E
:10248000F80111928A95E9F710924202E091B802A0
:10249000F0E0E055FD4F89819A81AB81BC8180835A
:1024A0009183A283B38311E00E94BF020DC070E04C
:1024B00060557D4F8091B80290E080559D4F0E94FD
:1024C000BB130E945E1110E0812F0F900F900F90B0
:1024D0000F90DF91CF911F910F910895EF92FF928E
:1024E0000F931F93CF93DF93CDB7DEB728970FB627
:1024F000F894DEBF0FBECDBF8E010F5F1F4F88E087
:10250000F80111928A95E9F7F12C6F2DC8010E940C
:102510008011F394F4E0FF12F8CF48E050E0B801E6
:1025200088EA92E00E949D257C0121E0892B09F434
:1025300020E0E114F10441F088E0F801A8EAB2E0FB
:1025400001900D928A95E1F76091B90270E06055B3
:102550007D4F44E088EA92E00E94C312EF2819F40C
:102560000E940C1202C081E090E028960FB6F89409
:10257000DEBF0FBECDBFDF91CF911F910F91FF90B6
:10258000EF9008950895FF920F931F93CF93DF93D9
:102590008C01F62ED72FC42F222349F081E080939F
:1025A00045020E94021E9093440280934302809150
:1025B00045028823C1F080914302909144020E9419
:1025C0001A1E059780F0EF2DFD2FD8014C2F50E0FB
:1025D000CD01801B910B841795071CF48D9181937D
:1025E000F7CF10924502DF91CF911F910F91FF908D
:1025F00008958091480281110DC00E9462258111C9
:1026000002C082E001C081E080934802823011F470
:102610000E945D2581E090914802913009F080E0B0
:1026200008950C94F9120E941113809304010E94E2
:10263000F91281110C94631308950E94F91281110B
:1026400002C00C946513089581E0909149029A307C
:1026500008F080E008950F931F93CF93DF93EC0170
:102660008B01809149028A3038F4B801CE010E9472
:10267000B91381111DC00AC0809146029091470292
:102680000E941A1E843F914080F715C08091490234
:102690008F3F19F08F5F80934902809149028A3001
:1026A00060F00E94021E909347028093460203C08E
:1026B0001092490202C080E001C081E0DF91CF9119
:1026C0001F910F9108950C947B1A0C947E1AEF922F
:1026D000FF920F931F93CF93DF937901C82F880F39
:1026E000DD0B41155105A9F08AE08C9FF0018D9F0B
:1026F000F00D1124EB5FFE4F83819481865B9D4F2B
:10270000228130E04217530708F49A01A9010E9480
:10271000AA25CE010E94881B892B09F501151105F8
:1027200001F18AE08C9FF0018D9FF00D1124EB5F89
:10273000FE4F458150E00417150708F4A8018AE010
:102740008C9FF0018D9FF00D1124EB5FFE4F668191
:102750007781665B7D4FC7010E94AA2502C080E099
:1027600001C081E0DF91CF911F910F91FF90EF9019
:1027700008950C94DC140C94F8140F931F93CF93CA
:10278000DF9300D000D0CDB7DEB760915F027091CB
:10279000600280916102909162020E94291E64365B
:1027A00071058105910528F10E94CF10DC01CB0154
:1027B0000296A11DB11D89839A83AB83BC8300E07F
:1027C00010E020E030E044E050E0BE016F5F7F4F5A
:1027D00082E00E946713182F882361F00E940E1E6A
:1027E00060935F0270936002809361029093620233
:1027F00001C011E0812F0F900F900F900F90DF918B
:10280000CF911F910F910895AF92BF92CF92DF9217
:10281000EF92FF920F931F93CF93DF937C015B01A5
:102820006A010E942413811103C001E010E002C07C
:102830000AE010E0C1E0D0E0F894B501C701F6016C
:1028400009957894811115C021960C171D0794F0F5
:10285000CC9F9001CD9F300D300D112480E090E091
:1028600045E34A95F1F70000019682179307C1F7F7
:10287000E3CF81E0DF91CF911F910F91FF90EF9017
:10288000DF90CF90BF90AF900895AF92BF92CF925C
:10289000DF92EF92FF920F931F93CF93DF9300D0BD
:1028A00000D01F92CDB7DEB75B01E090A801F09099
:1028B000A90101E010E09E012B5F3F4F40E050E096
:1028C00060E070E080E00E946713182F882309F40D
:1028D0003EC067018FEFC81AD80A60915B02709101
:1028E0005C0280915D0290915E020E94291E643616
:1028F00071058105910518F104E010E09E012F5F3C
:102900003F4F40E050E060E070E081E00E946713DC
:10291000182F64E070E0C6010E94DF1791E02D815E
:10292000281390E0192351F10E940E1E60935B0260
:1029300070935C0280935D0290935E0211C064E02C
:1029400070E0C6010E94DF179D818913D5CFF70182
:1029500081819281A381B48189839A83AB83BC8373
:10296000112361F089819A81AB81BC8180935702E8
:1029700090935802A0935902B0935A028091570243
:1029800090915802A0915902B0915A02F5018083AA
:102990009183A283B383812F0F900F900F900F909C
:1029A0000F90DF91CF911F910F91FF90EF90DF90EB
:1029B000CF90BF90AF9008950F931F93CF93DF9365
:1029C000EC018B0145E454E10E940414882351F08A
:1029D0004DEB53E1B801CE01DF91CF911F910F91E3
:1029E0000C94041480E0DF91CF911F910F91089512
:1029F0000F931F93CF93DF93F894C091A801D091C8
:102A0000A901CE01019624E0FB01DC0101900D92A9
:102A10002A95E1F764E070E00E94DF1788837894DC
:102A2000F8946D817E818F81988500915302109179
:102A300054022091550230915602601771078207A7
:102A4000930751F0609353027093540280935502A0
:102A5000909356020E94B2107894DF91CF911F910B
:102A60000F9108950E9423200E94000E0C942F20A5
:102A70000E9433200E940A0E0C944D200E94891D52
:102A80000E940A200E94F20D0E9432150E94381501
:102A90000E94FC0DFBCF8091690280FF0BC060910A
:102AA000280185E0689FB00111247595679575959B
:102AB00067952BC081FF09C06091280185E0689F60
:102AC000B00111247595679520C082FF07C0609101
:102AD000280185E0689FB001112417C09091680219
:102AE0009923D1F060912701961788F7209128014A
:102AF00085E0289F90011124929FA001939F500D83
:102B0000112470E0CA010E946F256038710540F4FD
:102B10006115710519F406C065E070E0862F08950F
:102B20008FE7089581E008958091690280FF08C0D1
:102B30006091240170E0759567957595679521C042
:102B400081FF06C06091240170E07595679519C0FA
:102B500082FF04C06091240170E010C09091670270
:102B6000992399F0609123019617A0F78091240191
:102B7000899FC001112470E00E946F2560387105A3
:102B800040F46115710519F406C061E070E0862F0C
:102B900008958FE7089581E008958D3E21F40E9405
:102BA0004B15819504C08E3E29F40E944B158093ED
:102BB0006D0208958F3E21F40E944B15819504C04B
:102BC000803F29F40E944B1580936C020895893F41
:102BD00019F40E94941505C08A3F31F40E9494159F
:102BE000819580936E0208958B3F21F40E94941585
:102BF000819504C08C3F29F40E94941580936F0244
:102C000008959FE0980F983078F421E030E0A90112
:102C100002C0440F551F9A95E2F7CA0190916B02CA
:102C2000892B80936B0208958D3F21F48091690276
:102C300081600BC08E3F21F480916902826005C0E3
:102C40008F3F29F48091690284608093690208951E
:102C50008D3E39F490916D0297FF35C010926D0250
:102C600059C08E3E29F490916D021916BCF32BC009
:102C700090916C028F3E29F497FF25C010926C0250
:102C800049C0803F19F41916CCF31DC090916E0213
:102C9000893F29F41916BCF410926E023BC08A3F9A
:102CA00019F497FF10C0F8CF8B3F39F490916F0261
:102CB00097FF09C010926F022DC08C3F21F49091B4
:102CC0006F021916BCF39FE0980F983080F421E052
:102CD00030E0A90102C0440F551F9A95E2F7CA01DE
:102CE000809590916B02892380936B0213C08D3F76
:102CF00021F4809169028E7F0BC08E3F21F4809178
:102D000069028D7F05C08F3F29F4809169028B7F16
:102D10008093690280916C02811106C080916D02DE
:102D2000811102C01092680280916E02811106C06A
:102D300080916F02811102C01092670208950E9473
:102D4000021E20916C02211104C020916D022223E9
:102D500021F0909366028093650220916E0221110A
:102D600004C020916F02222321F09093640280938B
:102D700063028AE692E00C94771CEF92FF920F9325
:102D80001F93CF93DF9300D000D000D0CDB7DEB734
:102D900086E0EAE6F2E0DE01119601900D928A9556
:102DA000E1F7E0906C02F0906D0200916E021091DC
:102DB0006F0210926C0210926D0210926E021092CD
:102DC0006F02E11003C0FF2009F45DC0809165022D
:102DD000909166020E941A1EAC019091680299239C
:102DE00039F02091290130E02417350758F04BC005
:102DF00020912A018AE0289F900111242417350789
:102E000018F041C09F3F19F09F5F90936802EE2039
:102E100061F00E944B151E1414F09FEF01C091E069
:102E2000989F902D112490936C02FF2061F00E94D6
:102E30004B151F1414F09FEF01C091E0989F902D47
:102E4000112490936D0230916C023323E1F02091B4
:102E50006D022223C1F045EB3403C00111249923F4
:102E600019F090936C0203C081E080936C0235EB03
:102E70002303C0011124992319F090936D0203C01C
:102E800081E080936D02011103C0112309F45DC03C
:102E900080916302909164020E941A1EAC0190918D
:102EA0006702992339F02091250130E02417350776
:102EB00058F04BC0209126018AE0289F90011124F0
:102EC0002417350718F041C09F3F19F09F5F90937A
:102ED0006702002361F00E949415101614F09FEF12
:102EE00001C091E0989F902D112490936E021123C0
:102EF00061F00E949415111614F09FEF01C091E04B
:102F0000989F902D112490936F0230916E0233237D
:102F1000E1F020916F022223C1F045EB3403C001A0
:102F20001124992319F090936E0203C081E08093DD
:102F30006E0235EB2303C0011124992319F09093FD
:102F40006F0203C081E080936F0280916C02811157
:102F50000BC080916D02811107C080916E028111BA
:102F600003C080916F0281110E949F16EB82FC8248
:102F70000D831E8386E0FE013196AAE6B2E0019041
:102F80000D928A95E1F726960FB6F894DEBF0FBE34
:102F9000CDBFDF91CF911F910F91FF90EF900895DA
:102FA000EAE6F2E086E0DF011D928A95E9F71092E9
:102FB0006802109267021092690208950895FC0158
:102FC000680F791F8FEF91E3E617F70771F02191F2
:102FD000822728E030E087FF03C0880F892701C0DF
:102FE000880F21503109B9F7EFCF0895CF93DF93C0
:102FF000EC01FB018281882309F426C1C430FDE580
:10300000DF0760F4CB3F9CE5D90768F49E012250AE
:103010003C452431310508F018C105C0C236EDE544
:10302000DE0709F012C10E942D0D9093A702809334
:10303000A602C031FCE5DF0709F4CAC008F041C0B0
:10304000C8309CE5D90709F4A4C0F0F4C430FCE50D
:10305000DF0709F48CC068F4C2309CE5D90709F495
:1030600082C0C330DC4509F0E5C08091A6028260D1
:10307000DFC0C630FCE5DF0709F483C008F085C077
:103080008091A6028860D4C0CC309CE5D90709F4B1
:1030900090C068F4CA30FCE5DF0709F47EC008F090
:1030A00084C00E94E0068091A6028068C1C0CE3034
:1030B0009CE5D90709F481C008F086C08091A6027A
:1030C00094C0CD3FFCE5DF0709F47BC038F5C4317F
:1030D0009CE5D90709F49AC058F4C231FCE5DF0732
:1030E00009F47AC008F07EC08091A6028F7BA0C050
:1030F000CB3F9CE5D907F1F108F03FC0C531DC4575
:1031000009F098C08091A60282FB222720F991E065
:10311000922790FB82F990FB83F98AC0C1308DE53C
:10312000D80709F467C050F48091A702CF3FECE5BF
:10313000DE07C1F108F05BC08D7F65C0C3308DE54F
:10314000D80709F471C008F46DC0C236DD4509F036
:1031500071C08091A60284FB222720F991E092277A
:1031600090FB84F965C08091A602816061C0809166
:10317000A60216C08091A70216C08091A7028260A5
:1031800042C08091A602806153C08091A6028062F5
:103190004FC08091A60280644BC08091A6028860D7
:1031A000846046C0826081602EC08091A6028E7FBE
:1031B0003FC08091A6028D7F3BC08091A602877F91
:1031C00037C08091A70214C08091A6028F7E30C0C4
:1031D0008091A6028F7D2CC00E94E0068091A602FD
:1031E0008F7726C08091A602877F8B7F21C08D7F3D
:1031F0008E7F09C08091A702982F909591708E7F45
:10320000892B90FB81F98093A70214C00E94E006ED
:103210008091A60287FB222720F991E0922790FB5C
:1032200087F906C081E001C080E00E94C40D02C0A1
:103230008093A6028091A6029091A7020E943E0D63
:103240000E94E00680E001C081E0DF91CF91089507
:10325000CF93DF9386319C4541F5EB010E943E0CF4
:10326000982F8A812091020130910301882379F0FF
:103270009A7A81E009F480E080937002911102C093
:1032800069E201C065E3C9010E94471D0AC080913F
:103290007002811102C069E201C065E3C9010E94A8
:1032A000521D0E94830C80E001C081E0DF91CF912C
:1032B00008950F931F93CF93DF93C42FD22FFC0158
:1032C00082818823C9F0409373020E94021E90936A
:1032D00072028093710280E28C0F883008F057C030
:1032E000C77081E001C0880FCA95EAF7DF91CF91DE
:1032F0001F910F910C943B0480917302481330C0CE
:1033000080917102909172020E941A1E883C910570
:1033100038F510E21D0FCD17B9F080E28C0F883020
:1033200040F4C77081E001C0880FCA95EAF70E9497
:103330004204183028F581E09D2F977001C0880F56
:103340009A95EAF70E943B04802F0E9432041830BD
:10335000F0F4D77081E001C0880FDA95EAF70AC06F
:1033600080E28C0F883098F4C77081E001C0880F2C
:10337000CA95EAF7DF91CF911F910F910C94420407
:10338000802FDF91CF911F910F910C943204DF9128
:10339000CF911F910F9108950F939C01CB01243F72
:1033A0004CE5340731F188F4293DFCE53F07D9F0BD
:1033B0002A3D4CE5340779F1283D3C45A9F506E264
:1033C00021EE41EE68ED7CE52BC0263FFCE53F0792
:1033D000E1F0A8F0273F3C4539F507E225EE46EE3F
:1033E00067EF7CE51DC007E225EE45EE69ED7CE563
:1033F00017C006E221EE40EE64EF7CE511C007E263
:1034000025EE44EE65EF7CE50BC006E221EE42EED0
:1034100066EF7CE505C008E221E045EE6AED7CE55B
:103420000E94591980E008C0FC018281882319F0AC
:103430001092730201C081E00F9108958EE14A9BC2
:1034400002C08150E1F74A9BFECF08955A9880E26E
:103450008A95F1F75A9A0895FC012AE02A95F1F726
:1034600028E090E080E031E040E14A95F1F7880FF4
:103470004A9B02C08160932700C0000040E14A954A
:10348000F1F7215089F720E12A95F1F729B100C021
:10349000000030E13A95F1F722FB222720F992272C
:1034A0002081920F90830895EF92FF920F931F93C4
:1034B000CF93DF931F92CDB7DEB719828C017C01C9
:1034C000E60EF11C0E151F0551F00E941E1ACE01CA
:1034D00001960E942C1AF80181938F01F3CF81E0AD
:1034E0009981911180E00F90DF91CF911F910F9101
:1034F000FF90EF900895529A5A9A089552985A9AC6
:10350000EA9AE9E6F0E080818F7C8083089561503B
:1035100091E001C0990F6A95EAF720E031E0992324
:1035200061F0492F482319F05A9A232701C05A986D
:1035300040E24A95F1F79695F2CF222311F05A9A7C
:1035400001C05A9880E28A95F1F75A980895FF923F
:103550000F931F93CF93DF93EC018C01060F111D86
:10356000C017D10741F0F9900E94261A68E08F2D0C
:103570000E94871AF5CFDF91CF911F910F91FF9095
:1035800008951F920F920FB60F921124EF92FF929F
:103590000F931F932F933F934F935F936F937F935B
:1035A0008F939F93AF93BF93EF93FF93CF93DF934B
:1035B0001F92CDB7DEB719820E941E1ACE01019666
:1035C0000E942C1AA82FA695A695A6959A2F969597
:1035D00095702A2F2570920F292F23709695969516
:1035E000920F877089137CC08981811179C0A430C2
:1035F00008F076C080E18A95F1F75A9A529AB2E0C3
:10360000BA95F1F700C05A98EA2EF12CEAE0AE9F85
:10361000D0011124AB5FBE4F1896ED91FC91199724
:103620003097B1F06091A8017091A90116962D9183
:103630003C911797260F371F13968D919C911497E5
:10364000680F791F15964C91159712968C910995D4
:103650008AE08E9DF0018F9DF00D1124EB5FFE4FEF
:103660006581662351F08091A8019091A90126817E
:103670003781820F931F0E94A71A0E94261AF0E139
:10368000FA95F1F75A9852985A9A80E18A95F1F78B
:103690008AE08E9D80018F9D100D11240B5F1E4FBF
:1036A000D80112966C911297662399F08091A80127
:1036B0009091A90113962D913C911497820F931F1D
:1036C0000E94541AD801ED91FC91811105C082E04D
:1036D00004C0D801ED91FC9188E080830E941E1AFD
:1036E0000F90DF91CF91FF91EF91BF91AF919F919B
:1036F0008F917F916F915F914F913F912F911F918A
:103700000F91FF90EF900F900FBE0F901F901895A4
:103710000F931F93CF93DF93843091050CF0A9C0D2
:103720002AE0289FF001299FF00D1124EB5FFE4F46
:1037300020813181232B09F49CC0EC01F894529A2A
:103740005A9885E08A95F1F700008C2F8695857050
:103750009C2F9570890F982F9370869586958E0172
:1037600023E0000F111F2A95E1F7890F082B0E9413
:10377000261AA4E0AA95F1F700C068E0802F0E9405
:10378000871AB0E1BA95F1F752985A9A4A9902C04D
:1037900000C0FCCF87E090E04A9B17C0019799F4E6
:1037A000529A5A9A8AE08C9FF0018D9FF00D112455
:1037B000EB5FFE4F0190F081E02D81E080837894F3
:1037C00081E090E058C000C0E7CF8AE08C9F800184
:1037D0008D9F100D11240B5F1E4FF801658166232C
:1037E000B9F08091A8019091A90126813781820FBB
:1037F000931F0E94541A81110BC0529A5A9AD801F1
:10380000ED91FC9182E08083789482E090E033C077
:103810000E941E1AB0E2BA95F1F75A98529AE0E166
:10382000EA95F1F78AE08C9FF0018D9FF00D11244D
:10383000EB5FFE4F6281662351F08091A801909169
:10384000A90123813481820F931F0E94A71A0E942D
:10385000261A8AE08C9FF0018D9FF00D1124EB5FFA
:10386000FE4F0190F081E02D1082789480E090E08E
:1038700002C084E090E0DF91CF911F910F910895F5
:103880009093AB018093AA01089590937A0280935C
:10389000790208950E94F912811103C08091740287
:1038A0000895E0917902F0917A02309721F0019029
:1038B000F081E02D099480E00895E0917902F09183
:1038C0007A02309799F020913701222359F0209104
:1038D000A60227FF07C0DC012C9111962C931197AB
:1038E00026E02C930280F381E02D09940895E09165
:1038F0007902F0917A02309739F022E0DC012C93C2
:103900000480F581E02D099408952091770230918B
:1039100078022817390771F0909378028093770224
:10392000E0917902F0917A02309721F00680F781D8
:10393000E02D0994089520917502309176022817A0
:10394000390771F09093760280937502E0917902C5
:10395000F0917A02309721F00084F185E02D0994EE
:103960000895FC01329680913701882331F08091CF
:10397000A60287FF02C09EE101C096E080E0915060
:1039800028F021912223D9F38F5FF9CF0895662380
:1039900051F1209137012223E9F02091A60227FF5F
:1039A00019C0462F4695469546954E31E0F467700E
:1039B00021E030E002C0220F331F6A95E2F7FC01DC
:1039C000E40FF11D828190E02823392381E0232B2D
:1039D00069F409C0FC01329608962191621729F01A
:1039E000E817F907D1F780E0089581E008959C0178
:1039F000FC0132969FEF80E04191461789F09F3F8E
:103A000019F4411101C0982F8F5F8630A9F79F3FAD
:103A100039F0F901E90FF11D97FDFA9562830895D8
:103A200008959C012A5F3F4FFC014281461301C06B
:103A30001282019682179307B9F70895262F2695CB
:103A4000269526952E3168F4FC01E20FF11D677072
:103A500021E030E001C0220F6A95EAF78281282B2D
:103A600022830895262F2695269526952E3170F4CB
:103A7000FC01E20FF11D677021E030E001C0220F70
:103A80006A95EAF720958281282322830895209160
:103A90003701222329F02091A60227FD0C941E1D38
:103AA0000C94F71C20913701222329F02091A602C3
:103AB00027FD0C94321D0C94111D20913701FC013F
:103AC0003296222331F08091A60287FF02C08EE158
:103AD00001C086E0DF011D928A95E9F708950895F7
:103AE0000C946F1D83E080937B020C94701D8111F8
:103AF00002C081E001C082E080937B020C94701DC3
:103B00000C94771D81E080937B020C94701D0C94C3
:103B1000821D08958091C302843031F10E94C10258
:103B200010927C0220E488E190E00FB6F894A8950A
:103B3000809360000FBE2093600083B7817F846014
:103B400083BF83B7816083BF7894889583B78E7F66
:103B500083BF0FB6F894A895809160008861809328
:103B60006000109260000FBE089508950C94B51D7A
:103B7000CF930E94B61D0E946E120E94B51DC0E038
:103B80008C2F0E942E11811104C0CF5FC830C1F765
:103B900001C081E0CF9108950E94E0060C942A03B1
:103BA0001F920F920FB60F9211248F939F93AF9392
:103BB000BF9380917C02811113C08091BB029091D0
:103BC000BC02A091BD02B091BE024196A11DB11DE3
:103BD0008093BB029093BC02A093BD02B093BE023F
:103BE000BF91AF919F918F910F900FBE0F901F903B
:103BF000189582E084BD93E095BD9AEF97BD8093C0
:103C00006E0008952FB7F8948091BB029091BC028A
:103C1000A091BD02B091BE022FBF08952FB7F894B6
:103C20006091BB027091BC028091BD029091BE0276
:103C30002FBF08959C014FB7F8948091BB029091DB
:103C4000BC02A091BD02B091BE024FBF821B930B7C
:103C50000895CF92DF92EF92FF922FB7F894C09021
:103C6000BB02D090BC02E090BD02F090BE022FBF1C
:103C7000A7019601261B370B480B590BCA01B90146
:103C8000FF90EF90DF90CF90089578941F920F925D
:103C90000FB60F9211248F939F93AF93BF93809190
:103CA000BB029091BC02A091BD02B091BE020196F0
:103CB000A11DB11D8093BB029093BC02A093BD02D5
:103CC000B093BE02BF91AF919F918F910F900FBEA5
:103CD0000F901F90189587E797E7909301088093BE
:103CE00000089AE088E10FB6F894A89580936000E8
:103CF0000FBE90936000FFCF8091A00208950895B9
:103D000022E02093E9002FEF3091E800215035FDAB
:103D100006C035ED3A95F1F700002111F5CF20915D
:103D2000E80025FF0BC040E050E066E070E00E9434
:103D3000BF208091E8008E778093E8000895CF93AC
:103D4000DF9320913701222339F02091A60227FF2B
:103D500003C060E222E002C068E021E02093E900B5
:103D60002FEF3091E800215035FD06C035ED3A9532
:103D7000F1F700002111F5CF2091E80025FF1DC0CB
:103D8000EC0180913701811105C040E050E068E00E
:103D900070E003C070E040E050E0CE010E94BF2020
:103DA0008091E8008E778093E80080E2FE01A0E831
:103DB000B2E001900D928A95E1F7DF91CF910895DD
:103DC00080937D0270937F0260937E028091C30294
:103DD000843001F582E08093E9008FEF9091E80054
:103DE000815095FD06C095ED9A95F1F7000081117F
:103DF000F5CF8091E80085FF0DC040E050E063E022
:103E000070E08DE792E00E94BF208091E8008E77FD
:103E10008093E8000895BC0184E00C94E01EBC018E
:103E200083E00C94E01E8091C202811109C00E94BF
:103E300050220E94AD228091E20084608093E200D3
:103E400008951092C20208950C94871D6091BF02DC
:103E500081E0611101C080E00C94721D9091C30259
:103E600081E0943009F080E06091BF020C94771DEE
:103E700042E061EC81E00E94C92142E261EC82E013
:103E80000E94C9219091C30281E0943009F080E042
:103E90006091BF020C94801D8091C502833009F4AB
:103EA00061C030F4813071F0823009F49AC0089515
:103EB0008A3009F486C08B3009F46CC0893009F06F
:103EC000A8C020C08091C402813A09F0A2C08091AC
:103ED000E800877F8093E8008091C8029091C90232
:103EE000892B21F460E280E892E003C060E080E08A
:103EF00090E070E00E940A218091E8008B77809327
:103F0000E80008958091C402813209F082C0809156
:103F1000C8029091C902029708F07BC08091E80026
:103F2000877F8093E8008091E80082FD05C0809142
:103F3000C3028111F8CF6DC02091F3008091F2008F
:103F400090E0922B029731F48091F100813011F0D2
:103F5000863021F48091F1008093A0028091E800E6
:103F60008B7753C08091C402813A09F052C080918E
:103F7000C8029091C902892B09F04BC08091E800DA
:103F8000877F8093E8008091E80080FFFCCF8091DC
:103F9000370136C08091C4028132D9F58091C802C0
:103FA0009091C902892BA9F58091E800877F8093C1
:103FB000E8000E94FE218091C602809337010C9494
:103FC000E0068091C402813221F58091E800877F6C
:103FD0008093E8000E94FE218091C7028093A10295
:103FE00008958091C402813AA1F48091E800877F0E
:103FF0008093E8008091E80080FFFCCF8091A102CF
:104000008093F1008091E8008E778093E8000C9413
:10401000FE21089584B7877F84BF0FB6F894A895D2
:1040200080916000886180936000109260000FBEF4
:1040300090E080E80FB6F89480936100909361005F
:104040000FBE0C94821D0E9450220E94AD22E2EE0F
:10405000F0E080818460808378940C9442258BE228
:1040600091E00C94451C8091C3028530A9F48091A5
:10407000C302853079F40E948A1D8091C102882391
:10408000B1F30E94B81D882391F30E94A9200E94D9
:10409000E006EDCF0C94CC1D089508950C945020AB
:1040A000292F332723303105C9F060F42130310541
:1040B00081F02230310509F044C08BE390E028EF15
:1040C00032E043C021323105E1F02232310549F1BD
:1040D00038C082E190E023E333E037C09927813094
:1040E000910549F028F0029761F5E4EDF2E005C092
:1040F000E4EFF2E002C0E2EEF2E0849190E09F0192
:1041000024C06115710541F061307105D1F489E079
:1041100090E023E233E019C089E090E02AE033E048
:1041200014C06115710541F06130710551F486EBE1
:1041300090E025E433E009C080E490E02BEF33E029
:1041400004C080E090E020E030E0FA013183208379
:10415000089580E189BD82E189BD09B400FEFDCFEB
:104160008091D8008F7D8093D8008091E00082609C
:104170008093E0008091E00081FDFCCF0895CF9214
:10418000DF92EF92FF920F931F93CF93DF93EC0197
:104190008B017A010E941D22811133C0E114F104C8
:1041A00039F0F70180819181081B190BC80FD91FC5
:1041B000C12CD12C0115110519F18091E80085FD64
:1041C00016C08091E8008E778093E800E114F10436
:1041D00049F0F70180819181C80ED91ED182C08239
:1041E00085E00FC00E941D22882321F30AC0899117
:1041F0008093F10001501109FFEFCF1ADF0ADACFE7
:1042000080E0DF91CF911F910F91FF90EF90DF90B1
:10421000CF9008952091CA023091CB02261737071C
:1042200048F06115710539F42091E8002E7720934C
:10423000E80001C0B901FC0120E06115710579F1C8
:104240008091C3028823F1F18530F1F18091E8007B
:1042500083FD3CC08091E80082FD2EC08091E80083
:1042600080FFEBCF2091F3008091F20090E0922B41
:104270006115710551F08830910538F42191209332
:10428000F100615071090196F3CF21E0089709F020
:1042900020E08091E8008E778093E800CECF211156
:1042A000CFCF0AC08091C302882361F0853061F0CE
:1042B0008091E80083FD0AC08091E80082FFF2CF80
:1042C00080E0089582E0089583E0089581E00895F4
:1042D0002091CA023091CB022617370748F06115AA
:1042E000710539F42091E8002E772093E80001C091
:1042F000B901FC0120E06115710591F18091C302C3
:10430000882309F440C0853009F43FC08091E8005B
:1043100083FD3DC08091E80082FD2FC08091E800C0
:1043200080FFE9CF2091F3008091F20090E0922B82
:104330006115710559F08830910540F4249120935E
:10434000F1003196615071090196F2CF21E0089792
:1043500009F020E08091E8008E778093E800CBCFD1
:104360002111CCCF0AC08091C302882361F085302F
:1043700061F08091E80083FD0AC08091E80082FF2F
:10438000F2CF80E0089582E0089583E0089581E00F
:104390000895982F973068F59093E900981739F0B1
:1043A0007091EC002091ED005091F00003C0242F9B
:1043B000762F50E021FD02C09F5FECCF3091EB00E3
:1043C0003E7F3093EB003091ED003D7F3093ED0068
:1043D0003091EB0031603093EB007093EC00209350
:1043E000ED005093F0002091EE0027FDE5CF80E036
:1043F00008958F708093E90081E008958091C40250
:1044000087FF11C08091E80082FD05C08091C30242
:104410008111F8CF11C08091E8008B770BC080919B
:10442000C302882349F08091E80080FFF8CF809193
:10443000E8008E778093E80008952091E4003091A1
:10444000E50095E64091EC00842F817040FF23C089
:104450008091E80080FD1DC08091C302882399F0FF
:10446000853099F08091EB0085FD11C04091E4000A
:104470005091E5002417350729F3915011F09A0166
:10448000E1CF84E0089582E0089583E0089581E01B
:10449000089580E008954091E80042FFDDCF08953F
:1044A0000E94BE220E94C622E0EEF0E08081816080
:1044B0008083E8EDF0E080818F77808319BCA7EDE1
:1044C000B0E08C918E7F8C9380818F7E8083109260
:1044D000C20208950F931F93CF93DF930E94BE22D1
:1044E0000E94C622C8EDD0E088818F7788838881BA
:1044F0008068888388818F7D888319BC1092C3026D
:104500001092BF021092C1021092C00200EE10E0A1
:10451000F80180818B7F808388818160888342E07D
:1045200060E080E00E94C921E1EEF0E080818E7FB2
:104530008083E2EEF0E0808181608083808188600A
:104540008083F80180818E7F808388818061888369
:10455000DF91CF911F910F910895E8EDF0E08081F8
:104560008F7E8083E7EDF0E080818160808384E04E
:1045700082BF81E08093C2020C946A22E8EDF0E0F1
:1045800080818E7F80831092E20008951092DA007D
:104590001092E10008951F920F920FB60F9211240E
:1045A0002F933F934F935F936F937F938F939F933B
:1045B000AF93BF93EF93FF938091E10082FF0BC015
:1045C0008091E20082FF07C08091E1008B7F8093A1
:1045D000E1000E9441258091DA0080FF1FC0809198
:1045E000D80080FF1BC08091DA008E7F8093DA00B4
:1045F0008091D90080FF0DC080E189BD82E189BD35
:1046000009B400FEFDCF81E08093C3020E94131F16
:1046100005C019BC1092C3020E94211F8091E100C5
:1046200080FF19C08091E20080FF15C08091E200F8
:104630008E7F8093E2008091E20080618093E200AF
:104640008091D80080628093D80019BC85E0809367
:10465000C3020E94261F8091E10084FF30C0809138
:10466000E20084FF2CC080E189BD82E189BD09B4EC
:1046700000FEFDCF8091D8008F7D8093D80080917F
:10468000E1008F7E8093E1008091E2008F7E809335
:10469000E2008091E20081608093E2008091BF029D
:1046A000882311F084E007C08091E30087FD02C0F9
:1046B00081E001C083E08093C3020E942E1F80919D
:1046C000E10083FF29C08091E20083FF25C0809133
:1046D000E100877F8093E10082E08093C302109223
:1046E000BF028091E1008E7F8093E1008091E20023
:1046F0008E7F8093E2008091E20080618093E200EF
:1047000042E060E080E00E94C9218091F000886072
:104710008093F0000E94241FFF91EF91BF91AF9111
:104720009F918F917F916F915F914F913F912F91C9
:104730000F900FBE0F901F9018951F920F920FB6FB
:104740000F9211242F933F934F935F936F937F9317
:104750008F939F93AF93BF93CF93DF93EF93FF9389
:10476000C091E900CF708091EC00D82FD17080FD0E
:10477000D0E81092E9008091F000877F8093F000EC
:1047800078940E94E1231092E9008091F000886003
:104790008093F000CD2BCF70C093E900FF91EF9193
:1047A000DF91CF91BF91AF919F918F917F916F9149
:1047B0005F914F913F912F910F900FBE0F901F90DF
:1047C00018951F93CF93DF93CDB7DEB7AA970FB697
:1047D000F894DEBF0FBECDBFE4ECF2E08091F100B3
:1047E000819322E0EC3CF207C9F70E944C1F8091B4
:1047F000E80083FF2EC18091C4029091C502492F29
:1048000050E04A30510508F024C1FA01E059FF4F49
:104810000C948325803821F0823809F01AC108C031
:104820008091C0029091C102992389F082600FC0EB
:104830008091C8028F70873008F00BC18093E90027
:104840008091EB0085FB882780F91092E900909118
:10485000E800977F9093E8008093F1001092F100B8
:10486000D1C0282F2D7F09F0F4C0882319F08230A1
:1048700061F0EFC08091C602813009F0EAC0933048
:1048800009F080E08093C1022EC08091C6028111A0
:104890002AC08091C8028F702FEF280F263008F0B1
:1048A000D8C08093E9002091EB0020FF1CC093301A
:1048B00021F48091EB00806214C09091EB00906134
:1048C0009093EB0021E030E0A90102C0440F551F96
:1048D0008A95E2F74093EA001092EA008091EB009B
:1048E00088608093EB001092E9008091E800877F58
:1048F0008093E8000E94FE21ACC08111AAC01091F3
:10490000C6021F778091E3008078812B8093E300BB
:104910008091E800877F8093E8000E94FE218091CB
:10492000E80080FFFCCF8091E30080688093E30083
:10493000111102C082E001C083E08093C30289C0EC
:104940008058823008F085C08091C6029091C702DD
:104950008C3D53E0950779F583E08A838AE2898369
:104960004FB7F894DE01139620E03EE051E2E32FCA
:10497000F0E050935700E49120FF03C0E295EF7000
:104980003F5FEF708E2F90E0EA3010F0C79601C0C5
:10499000C0968D939D932F5F243149F74FBF80912F
:1049A000E800877F8093E8006AE270E0CE0101961C
:1049B0000E940A2116C06091C8027091C902AE011E
:1049C0004F5F5F4F0E944E20BC01892B09F441C00C
:1049D0009091E800977F9093E80089819A810E94E6
:1049E00068218091E8008B778093E80032C080389E
:1049F00081F58091E800877F8093E8008091BF0275
:104A00008093F1008091E8008E7772CF811121C0F0
:104A10008091C6029091C70299270297D4F48091A1
:104A2000E800877F8093E8008091C6028093BF02F0
:104A30000E94FE218091BF02811106C08091E30097
:104A400087FD02C081E001C084E08093C3020E9420
:104A5000381F8091E80083FF0AC08091E800877FBB
:104A60008093E8008091EB0080628093EB00AA962F
:104A70000FB6F894DEBF0FBECDBFDF91CF911F916F
:104A800008950895CF938091C3028823A1F0C09127
:104A9000E900CF709091EC00892F817090FD80E843
:104AA000C82B1092E9008091E80083FD0E94E12369
:104AB000CF70C093E900CF9108950E9450221092C8
:104AC000C3020895E8EDF0E08081806180838AE18F
:104AD0008A95F1F700C08091D9008170089597FB05
:104AE000072E16F4009407D077FD09D00E9489257F
:104AF00007FC05D03EF4909581959F4F08957095E1
:104B000061957F4F0895EE0FFF1F0590F491E02D02
:104B10000994AA1BBB1B51E107C0AA1FBB1FA61704
:104B2000B70710F0A61BB70B881F991F5A95A9F756
:104B300080959095BC01CD010895FB01DC0104C076
:104B40008D910190801921F441505040C8F7881B85
:104B5000990B0895FB01DC0102C001900D924150B8
:104B60005040D8F70895F999FECF92BD81BDF89ACB
:104B7000992780B50895A8E1B0E042E050E00C9498
:104B8000E725262FF999FECF92BD81BDF89A0197AE
:104B900000B4021639F01FBA20BD0FB6F894FA9A85
:104BA000F99A0FBE08950396272F0E94C2250E94EE
:104BB000C125252F0E94C225242F0C94C2250196C1
:104BC000272F0E94C2250C94C125DC01CB01FC01DA
:104BD000F999FECF06C0F2BDE1BDF89A319600B456
:0E4BE0000D9241505040B8F70895F894FFCF61
:104BEE00C8000D0201BA020000000100000000BA68
:104BFE00020000000401000000BA020405000000DB
:104C0E000000002808641E140A321E7C1E9F1E809F
:104C1E001E0F1F0B1F7F1E01E200E900EA00B50008
:104C2E00B600B700CD008301CC008A019201940139
:104C3E002102230224022502260227022A02B300A1
:104C4E00B4006F007000818283E200E900EA00B5D3
:104C5E0000B600B700CD008301CC008A019201940A
:104C6E00012102230224022502260227022A02B370
:104C7E0000B4006F007000818283F4F5F6F73133D3
:0A4C8E00946697C6000000004A0279
:00000001FF
